:1000000000000420752101005D2101005F21010035
:100010006121010063210100652101000000000051
:100020000000000000000000000000001126010098
:10003000692101000000000031260100CD5C0200B2
:10004000258601006F21010031D00100F9860100F1
:10005000119501006F210100B57E01006F210100A3
:100060002D9101006F2101006F2101002D830100FE
:100070006F2101006F2101006F2101006F2101003C
:100080000D960100792801006F2101006F21010008
:100090006F2101006F2101006F2101006F2101001C
:1000A0006F2101006F2101006F2101006F2101000C
:1000B0006F2101006F21010000000000000000001E
:1000C0006F2101006F2101006F2101000D870100E8
:1000D0006F2101006F2101006F210100FDB70100B8
:1000E0006F2101006F2101006F210100000000005D
:1000F000000000006F2101000000000021870100C6
:1001000000000000000000000000000000000000EF
:1001100000000000000000000000000000000000DF
:1001200000000000000000000000000000000000CF
:1001300000000000000000000000000000000000BF
:1001400000000000000000000000000000000000AF
:10015000000000000000000000000000000000009F
:10016000000000000000000000000000000000008F
:10017000000000000000000000000000000000007F
:10018000000000000000000000000000000000006F
:10019000000000000000000000000000000000005F
:1001A000000000000000000000000000000000004F
:1001B000000000000000000000000000000000003F
:1001C000000000000000000000000000000000002F
:1001D000000000000000000000000000000000001F
:1001E000000000000000000000000000000000000F
:1001F00000000000000000000000000000000000FF
:020000021000EC
:100000000901000909010100004100090303000082
:1000100000000000000000000000000000000000E0
:1000200000000000000000000000000000000000D0
:1000300000000000000000000000000000000000C0
:1000400000000000000000000000000000000000B0
:1000500000000000000000000000000000000000A0
:100060000000000000000000000000000000000090
:100070000000000000000000000000000000000080
:100080000000000000000000000000000000000070
:100090000000000000000000000000000000000060
:1000A0000000000000000000000000000000000050
:1000B0000000000000000000000000000000000040
:1000C0000000000000000000000000000000000030
:1000D0000000000000000000000000000000000020
:1000E0000000000000000000000000000000000010
:1000F0000000000000000000000000000000000000
:1001000000000000000000000000000000000000EF
:1001100000000000000000000000000000000000DF
:1001200000000000000000000000000000000000CF
:1001300000000000000000000000000000000000BF
:1001400000000000000000000000000000000000AF
:10015000000000000000000000000000000000009F
:10016000000000000000000000000000000000008F
:10017000000000000000000000000000000000007F
:1001800000000000000000000000FFFFFFFFFFFF75
:10019000FFFFFFFFFFFFFFFFFFFFC0A80164C0A834
:1001A0000101FFFF000000050014006400BC02D044
:1001B0000734FDFDFDFD00000100CADE0000000067
:1001C000000000000001010500F0490200F40115E3
:1001D0004015401540000000006C070000000000C2
:1001E000000000000000000F22EB14A85060F8AAE5
:1001F00036D3D174861414E43D9A1FCAC37ED3FB50
:10020000A84FC434EB2E36010000002E0000000081
:1002100000000000000000000000000000000000DE
:1002200000000000000000000000000000000000CE
:1002300000000000000000000000000000000000BE
:1002400000000000000000000000000000000000AE
:101000000901000909010100004100090303000072
:1010100000000000000000000000000000000000D0
:1010200000000000000000000000000000000000C0
:1010300000000000000000000000000000000000B0
:1010400000000000000000000000000000000000A0
:101050000000000000000000000000000000000090
:101060000000000000000000000000000000000080
:101070000000000000000000000000000000000070
:101080000000000000000000000000000000000060
:101090000000000000000000000000000000000050
:1010A0000000000000000000000000000000000040
:1010B0000000000000000000000000000000000030
:1010C0000000000000000000000000000000000020
:1010D0000000000000000000000000000000000010
:1010E0000000000000000000000000000000000000
:1010F00000000000000000000000000000000000F0
:1011000000000000000000000000000000000000DF
:1011100000000000000000000000000000000000CF
:1011200000000000000000000000000000000000BF
:1011300000000000000000000000000000000000AF
:10114000000000000000000000000000000000009F
:10115000000000000000000000000000000000008F
:10116000000000000000000000000000000000007F
:10117000000000000000000000000000000000006F
:1011800000000000000000000000FFFFFFFFFFFF65
:10119000FFFFFFFFFFFFFFFFFFFFC0A80164C0A824
:1011A0000101FFFF000000050014006400BC02D034
:1011B0000734FDFDFDFD00000100CADE0000000057
:1011C000000000000001010500F0490200F40115D3
:1011D0004015401540000000006C070000000000B2
:1011E000000000000000000F22EB14A85060F8AAD5
:1011F00036D3D174861414E43D9A1FCAC37ED3FB40
:10120000A84FC434EB2E36010000002E0000000071
:1012100000000000000000000000000000000000CE
:1012200000000000000000000000000000000000BE
:1012300000000000000000000000000000000000AE
:10124000000000000000000000000000000000009E
:10200000354936480A1A02D0072291438D46344991
:1020100034480A1A06D00722914381F30988022224
:1020200082F3148830483149314A00F044F831488D
:102030003149324A00F03FF831483249324A00F023
:102040003AF832483249334A00F035F832483349D9
:10205000334A00F030F833483349344A00F02BF863
:1020600033483449344A00F026F8344834490022D1
:1020700000F02CF833483449002200F027F83348A8
:102080003349091A082902DB002202604160314A03
:1020900090471F481F49884205D00268043003B4A6
:1020A000904703BCF7E700208646EC46002000215D
:1020B000294A9047FEE7884207D0521A05D0037894
:1020C00001300B700131013AF9D17047884202D0DA
:1020D00002700130FAE770470000042000E003209E
:1020E000000004200000042020BC030000000020A9
:1020F00090000020D0210100D0210100507B03007E
:1021000020BC03000000002000000020A47B03008E
:10211000A47B0300A47B0300A47B0300A47B030037
:10212000A47B0300A47B0300A47B03001EBC03006C
:10213000B0BC030090000020900000209000002020
:102140003CBE01203CBE012044BE012044BE012013
:1021500044DE01209D21010025D50100FEE7FEE7B8
:10216000FEE7FEE7FEE7FEE7FEE7FEE7FEE7FEE747
:1021700000F002B8FFF7FCBF0F484FF0070188439B
:1021800085460E4880470E48016841F470010160A1
:10219000BFF34F8FBFF36F8FFFF732BF09480A4974
:1021A0000A4A884207D0521A05D0037801300B70D2
:1021B0000131013AF9D1704700000420CDD001006F
:1021C00088ED00E0507B03000000002000000020AC
:1021D0000048704734BE012010B50446032809D8D2
:1021E0000D4B1C5D22462F2C09D81F2C0CD84FF00C
:1021F000A0410CE00949412002F070FBF0E70849DA
:1022000040F2CD1002F06AFB04F01F0205490123E1
:102210009340C1F80C3510BD107C0300A47B030073
:10222000E47B03000003005010B50446032809D8DE
:102230000D4B1C5D22462F2C09D81F2C0CD84FF0BB
:10224000A0410CE00949472002F048FBF0E70849AB
:1022500040F2CD1002F042FB04F01F0205490123B9
:102260009340C1F8083510BD107C0300A47B030027
:10227000E47B03000003005008B50020FFF7D4FF03
:102280000120FFF7D1FF0220FFF7CEFF0320FFF769
:10229000CBFF08BD10B50446032809D8114B1C5DBF
:1022A00020462F2C09D81F2C0CD84FF0A0410CE051
:1022B0000D495F2002F012FBF0E70C4940F2CD100F
:1022C00002F00CFB04F01F000949D1F8043501228B
:1022D000824022EA0300C1F808051340C1F80C351A
:1022E00010BD00BF107C0300A47B0300E47B03004F
:1022F000000300502DE9F047044610F0010F04D10F
:1023000014F0020F27D1BDE8F087234D2E1DDFF812
:1023100090804FF0A047DFF88C900EE0494640F2E5
:10232000CD1002F0DBFA0AF01F03424603F5E0731A
:10233000032142F82310B5420AD015F801AB5346E9
:10234000BAF12F0FEAD8BAF11F0FECD83A46EDE7F1
:10235000FFF792FFD4E7114D2E1DDFF844804FF0B8
:10236000A047DFF840900EE0494640F2CD1002F061
:10237000B5FA04F01F03424603F5E0730C2142F85E
:102380002310AE42BFD015F8014B23462F2CEBD8BB
:102390001F2CEED83A46EFE7107C03000C7C0300BC
:1023A00000030050E47B030010B5182002F00CF984
:1023B000044620B1002340F8043B00F0D7F8204643
:1023C00010BD00002DE9F0410C4617461E46804620
:1023D00000283ED014F07F4F41D1002C45D001F0B1
:1023E0008FFC10B9069B002B45D101F021F9D8F8DC
:1023F0000050002E45D12C4214BF01230023002B96
:1024000045D1069B002B47D0002F0CBF00214FF079
:1024100080710EB141F08061069A214308F10400F9
:1024200001F030FB01F0BAF940B9294B4FF080526E
:102430005A6040BFBFF34F8FBFF36F8F01F050FD65
:10244000054610F0007F2AD025F07F452846BDE8DC
:10245000F08120494FF4997002F040FABAE71D4923
:1024600040F2331002F03AFAB9E71A494FF49A7081
:1024700002F034FAB3E7174940F2371002F02EFAAF
:10248000B3E734EA05030CBF01230023B7E71FB10C
:1024900025EA0404C8F8004001F080F9D6E700F00E
:1024A00089F9D8F8005066B92C4214BF01230023E3
:1024B00023B11FB125EA0404C8F8004000F098F9E0
:1024C000C2E734EA05030CBF01230023F0E700BF95
:1024D00000ED00E0147C0300F8B50F46054670B12E
:1024E00017F07F4F11D105F10C0601F0A1F82C690E
:1024F0002B683B432B60A64228D000271AE01849DE
:102500004FF4017002F0EAF9EAE7154940F20520BC
:1025100002F0E4F9E7E7296832EA010108D113F093
:10252000807F18BF1743296841F0007101F038FB24
:10253000A6420CD020466468036823F07F4213F063
:10254000806FE8D129680A42E9D1F1E700272B68BA
:1025500023EA07032B6001F021F92868F8BD00BFCA
:10256000147C030008B5FFF7B7FF08BD00F10803AE
:1025700043604FF0FF328260C36003610023036059
:10258000704700230361704743684B609A688A6014
:10259000516099600861036801330360704730B48B
:1025A0000D68B5F1FF3F11D000F108031C465B68D0
:1025B0001A68AA42FAD963684B6099608C606160BE
:1025C000086103680133036030BC70470469F2E7B7
:1025D0000369416882688A60416851605A68824232
:1025E00004BF82685A60002202611A68013A1A60C8
:1025F000186870470548006880F3088862B661B6BD
:10260000BFF34F8FBFF36F8F00DF00BF00000000EC
:10261000064B19680868B0E8F04F80F30988BFF3EB
:102620006F8F4FF0000080F311887047DC000020AE
:10263000EFF30980BFF36F8F144B1A681EF0100F71
:1026400008BF20ED108A20E9F04F10604DF8043DDE
:102650004FF0A00080F31188BFF34F8FBFF36F8F4F
:1026600001F0A2F94FF0000080F3118808BC19684E
:102670000868B0E8F04F1EF0100F08BFB0EC108AE9
:1026800080F30988BFF36F8F704700BFDC00002024
:1026900008B5074B1B68B3F1FF3F03D1A02383F3B9
:1026A0001188FEE703499E2002F018F9F6E700BF03
:1026B00098000020647C03004FF0807340F8043CD5
:1026C00040F8081C054B40F80C3C40F8202C6FF0FB
:1026D000020340F8243C4438704700BF91260100B3
:1026E00010B582B02B4B1A682B4B9A424CD12B4B16
:1026F0001A78D2B20192FF221A701B78DBB28DF8E1
:1027000003309DF8033003F00503254A1370254B71
:1027100007221A609DF8033013F0800F0FD00622B5
:102720009DF803305B00DBB28DF803309DF8033079
:102730001146013A13F0800FF2D11A4B1960194A71
:10274000136803F007031360019BDBB2134A137095
:10275000104CE02384F8223000F0C8F8124B00221D
:102760001A60D4F8883043F47003C4F888300F4AF4
:10277000536B43F040435363236943F010032361D9
:10278000FFF738FFFFF784FF0949B02002F0A6F8F1
:10279000ADE700BF00ED00E041C20F4100E400E002
:1027A00090000020940000209800002000EF00E03E
:1027B000647C030008B5A02383F31188094A1368D9
:1027C00001331360012B00D008BD074B5B68C3F3D6
:1027D0000803002BF8D0054940F2111002F07EF8F2
:1027E000F2E700BF9800002000ED00E0647C0300E9
:1027F00008B5084B1B683BB1064A1368013B1360E0
:102800000BB983F3118808BD03494FF48C7002F0B3
:1028100065F8F1E798000020647C030008B5EFF349
:102820000583C3F308030F2B09D903F1E023F03329
:1028300093F80033DBB20C4A12789A4208D80B4B5B
:10284000DB68C3F302230A4A12689A4206D308BD22
:1028500008494FF4A97002F041F8F0E705494FF438
:10286000B17002F03BF8F2E79000002000ED00E0CC
:1028700094000020647C030070B582B0EFF31186F1
:10288000A02383F31188174BD3F804550022C3F813
:102890000021D3F800310193019B00F0D1FE2D1AE5
:1028A00025F07F4535F0010313D16C1E6DB1002575
:1028B00000F0E6FE05432346013C002BF8D125B18C
:1028C000094B4FF080525A6040BF86F3118802B026
:1028D00070BD01F015FA0228E7D000F0D1FE0546E0
:1028E000EDE700BF0010014000ED00E008B500205A
:1028F00004F03AFF094B2022C3F808250122C3F84F
:1029000004239A601A600222C3F84423044BE02295
:1029100083F811234FF400321A6008BD0010014003
:1029200000E100E010B50446FFF744FFA46BFFF799
:102930005FFFB4FA84F0400910BD70B50446154637
:10294000866B026C5AB903681BB100200136A6637E
:1029500070BD406801F030FA00236360F6E76DB99E
:10296000806816F05BFCA368226C1344A360626865
:10297000934219D32368A3602846E7E7C06816F09E
:102980004DFC226C5142E3689B1AE360226893423B
:1029900002D263680B44E360022D01D00020D5E72A
:1029A00026B1013E0020D1E72846CFE70020CDE741
:1029B0000346026C6AB110B50846D9681144D96063
:1029C0005C68A14224BF1968D960D96816F026FC5A
:1029D00010BD704770B50546FFF7ECFE95F8454011
:1029E00064B2002C0FDD05F1240602E0013C64B264
:1029F0004CB16B6A3BB1304601F08CF80028F5D041
:102A000001F05CF9F2E7FF2385F84530FFF7F0FEAF
:102A1000FFF7D0FE95F8444064B2002C0FDD05F1BD
:102A2000100602E0013C64B24CB12B693BB1304668
:102A300001F070F80028F5D001F040F9F2E7FF232B
:102A400085F84430FFF7D4FE70BD000038B50D4660
:102A50000446D0B1FFF7AEFE2268216CE36B01FBA8
:102A600003F3D01860600020A063A2605B1A1344D7
:102A7000E360FF2384F8443084F84530D5B92369F6
:102A800043B9FFF7B5FE012038BD0F49FC2001F026
:102A900025FFDFE704F1100001F03CF80028F0D03A
:102AA0000A4B4FF080525A6040BFBFF34F8FBFF3C5
:102AB0006F8FE6E704F11000FFF758FD04F12400E2
:102AC000FFF754FDDDE700BFC07C030000ED00E030
:102AD00070B50C46064650B104FB06F0483001F0D4
:102AE00073FD054688B144B100F1480306E008498A
:102AF00040F26D1001F0F2FEEEE703462B60EE634C
:102B00002C6401212846FFF7A1FF284670BD00BFB5
:102B1000C07C03002DE9F04784B0894601921D4630
:102B2000044670B1B9F1000F11D0022D18D001F098
:102B3000E7F808B9019BE3B900273E46DFF84C816E
:102B400052E051494FF4377001F0C8FEEAE7236CB8
:102B5000002BEAD04C4940F2DD2001F0BFFEE4E753
:102B6000E36B012BE3D0484940F2DE2001F0B6FED2
:102B7000DDE7454940F2E12001F0B0FEDCE72A46FE
:102B800049462046FFF7D9FE636A7BB940B13F4B07
:102B90004FF080525A6040BFBFF34F8FBFF36F8F2B
:102BA000FFF726FE012004B0BDE8F08704F1240001
:102BB00000F0B0FF0028F3D0344B4FF080525A6041
:102BC00040BFBFF34F8FBFF36F8FE9E7FFF710FEF2
:102BD0000020E8E702A801F027F812E02046FFF7FE
:102BE000F9FE00F0DBFD0127FFF7E4FDA26BE36BCC
:102BF0009A42C4D3022DC2D0019B002BE6D0002FF5
:102C0000E8D0FFF7F5FD00F013FDFFF7D3FD94F8D2
:102C1000440040B2B0F1FF3F08BF84F8446094F82C
:102C2000450040B2B0F1FF3F08BF84F84560FFF7B0
:102C3000DFFD01A902A801F003F8F0B9FFF7BAFD22
:102C4000D4F838A0E76BFFF7D3FDBA45C6D1019998
:102C500004F1100000F0FCFE2046FFF7BBFE00F080
:102C60009DFD0028BFD14FF08053C8F8043040BF0D
:102C7000BFF34F8FBFF36F8FB5E72046FFF7AAFE74
:102C800000F08CFD00208EE7C07C030000ED00E02A
:102C900010B5024600210120FFF71AFF044638B1A3
:102CA000002141600160C1600B460A46FFF732FF18
:102CB000204610BD2DE9F8430E4691461D460446B8
:102CC000A0B1CEB1022D20D0FFF7A8FDEFF31188FF
:102CD000A02383F31188A26BE36B9A421ED3022DCB
:102CE0001CD0002088F31188BDE8F8831E4940F20B
:102CF000A23001F0F3FDE4E7236C002BE2D01A4987
:102D000040F2A33001F0EAFDDCE7E36B012BDBD0FE
:102D100015494FF4697001F0E1FDD5E794F845706D
:102D20007FB22A4631462046FFF707FEB7F1FF3F44
:102D300005D001377FB284F845700120D2E7636A7D
:102D40000BB90120CEE704F1240000F0E3FE30B11E
:102D5000B9F1000F05D00120C9F80000C2E7012039
:102D6000C0E70120BEE700BFC07C030070B50E467F
:102D70000446E0B1236C03BB236823B3FFF74EFD89
:102D8000EFF31185A02383F31188A26BE36B9342C9
:102D90002FD994F845305BB20132A263B3F1FF3F03
:102DA0001AD001335BB284F84530012022E0154986
:102DB00040F23F4001F092FDDCE7124940F243400F
:102DC00001F08CFDD8E76368002BD7D00D494FF494
:102DD000896001F083FDD1E7636A0BB9012009E046
:102DE00004F1240000F096FE38B146B101203060B5
:102DF00000E0002085F3118870BD0120FAE7012072
:102E0000F8E700BFC07C03002DE9F04385B0884699
:102E10000192044660B1B8F1000F0FD000F070FFCE
:102E200008B9019B9BB900273D46DFF82C914BE088
:102E3000484940F2DF4001F051FDECE7236C002BE4
:102E4000ECD0444940F2E34001F048FDE6E7414957
:102E50004FF49D6001F042FDE5E741462046FFF753
:102E6000A7FD731EA36323692BB9FFF7C1FC0120E3
:102E700005B0BDE8F08304F1100000F04BFE00281F
:102E8000F3D0354B4FF080525A6040BFBFF34F8FA5
:102E9000BFF36F8FE9E7FFF7ABFC0020E8E702A87C
:102EA00000F0C2FE1AE02046FFF794FD00F076FC29
:102EB00009E02046FFF78EFD00F070FC2046FFF78A
:102EC00031FD002843D10127FFF774FCA66B002ECB
:102ED000C3D1019B002BDED0002FE0D0FFF788FC90
:102EE00000F0A6FBFFF766FC94F844305BB2B3F148
:102EF000FF3F08BF84F8445094F845305BB2B3F10B
:102F0000FF3F08BF84F84550FFF772FC01A902A8F3
:102F100000F096FE0028CCD12046FFF703FD0028E4
:102F2000C1D0019904F1240000F092FD2046FFF782
:102F300051FD00F033FC0028C5D14FF08053C9F893
:102F4000043040BFBFF34F8FBFF36F8FBBE700204C
:102F50008EE700BFC07C030000ED00E02DE9F041EA
:102F600084B00191044658B1236C7BB900F0C8FECF
:102F700008B9019B83B90026B04635465B4F5CE03B
:102F80005B4940F2715001F0A9FCEDE7584940F26D
:102F9000755001F0A3FCE9E7554940F27A5001F081
:102FA0009DFCE8E7013BA363236843B1236953B960
:102FB000FFF71EFC0126304604B0BDE8F08100F0AA
:102FC0009BFF6060F2E704F1100000F0A3FD002811
:102FD000EED0464B4FF080525A6040BFBFF34F8F48
:102FE000BFF36F8FE4E71EB9FFF702FC0026E2E7AC
:102FF0003F4940F2C25001F071FCF5E702A800F031
:1030000013FE25E0FFF7D6FB606800F089FE064658
:10301000FFF7EEFB42E02046FFF7DCFC00F0BEFBD2
:1030200009E02046FFF7D6FC00F0B8FB2046FFF78A
:1030300079FC002847D14FF00108FFF7BBFBA36BD9
:10304000002BAFD1019B002BCDD0B8F1000FD5D014
:10305000FFF7CEFB00F0ECFAFFF7ACFB94F844303E
:103060005BB2B3F1FF3F08BF84F8445094F8453099
:103070005BB2B3F1FF3F08BF84F84550FFF7B8FBE0
:1030800001A902A800F0DCFD0028CAD12046FFF704
:1030900049FC0028BFD02368002BB3D0019904F16C
:1030A000240000F0D5FC2046FFF794FC00F076FBEE
:1030B0000028C0D14FF080537B6040BFBFF34F8FDB
:1030C000BFF36F8FB7E7002E3FF475AFFFF772FBCA
:1030D000616A19B1236B1968C1F10701606800F0DA
:1030E000AFFEFFF785FB002665E700BF00ED00E0BF
:1030F000C07C03002DE9F8430C461646054670B126
:103100009CB1FFF78BFBEFF31189A02383F31188A8
:10311000AF6B9FB9002089F31188BDE8F8831A4985
:1031200040F2DD6001F0DAFBEAE72B6C002BE8D01F
:10313000154940F2DE6001F0D1FBE2E795F84480EA
:103140004FFA88F821462846FFF732FC013FAF636B
:10315000B8F1FF3F07D008F101084FFA88F885F869
:1031600044800120D7E72B690BB90120D3E705F193
:10317000100000F0CFFC18B126B101203060CAE782
:103180000120C8E70120C6E7C07C030010B400237B
:10319000084C54F833202AB10133082BF9D15DF8DB
:1031A000044B7047034A42F8331002EBC3035860E4
:1031B000F5E700BF9C0000200023094901EBC30292
:1031C0005268824203D00133082BF7D17047044A7A
:1031D000002142F8331002EBC3035960704700BF6F
:1031E0009C00002010B5044630B12046FFF7E4FFF4
:1031F000204601F081FA10BD024940F29A7001F0B8
:103200006DFBF2E7C07C030070B504460D46164620
:10321000FFF7D0FA94F844305BB2B3F1FF3F04BF3C
:10322000002384F8443094F845305BB2B3F1FF3F9B
:1032300004BF002384F84530FFF7DAFAA36B1BB113
:103240002046FFF7C7FB70BD3246294604F1240033
:1032500000F042FCF4E70000094B1A68094B1B68B8
:10326000D86A50B9084B1B68012B07D832B9074BF5
:103270001868074B1B68C01A70470020704700BFD2
:1032800088010020DC000020E8000020B8010020B8
:1032900000020020084B1B681B6823B9074B4FF046
:1032A000FF321A607047044B1B68DB68DB685A68A2
:1032B000024B1A60704700BFE0000020B8010020F8
:1032C00070B504460D46174B1E68174B186804303E
:1032D000FFF77EF9B4F1FF3F0DD03444124B1B6869
:1032E0005C60A64210D9114B18680F4B1968043165
:1032F000FFF755F970BD002DEFD00B4B1968043165
:103300000B48FFF741F9F5E70A4B1868064B1968B7
:103310000431FFF744F9084B1B68A34284BF064BF6
:103320001C60E7E700020020DC000020E400002031
:10333000D8010020E0000020B80100202DE9F84F5E
:1033400007460D4698469600304601F03DF90028A4
:1033500000F0B0808146502001F036F90446002884
:103360007ED0C0F830903246A521484615F07FFF48
:10337000D4F8309005F1FF3C04F1330E05F10B0158
:103380001CF8015F0EF8015F0DB18C45F8D14FF0CC
:10339000000B84F83FB00A9D062D28BF0625E56284
:1033A0002564C4F844B004F1040A5046FFF7E9F874
:1033B00004F11800FFF7E5F82461C5F10705A561E0
:1033C0006462C4F848B084F84CB0043E4E444246AF
:1033D000394626F00700FFF76FF920600B9B03B119
:1033E0001C60FFF7E7F9374A136801331360364B67
:1033F0001B68002B3AD0354B1B683BB9324B1B681E
:10340000DA6AE36A9A429CBF2F4B1C60304A136809
:1034100001331360E06A2F4B1B68984284BF2D4B29
:10342000186000EB800051462B4B03EB8000FFF748
:10343000ABF8FFF7DDF9254B1B68002B3ED0224B84
:103440001B68DA6AE36A9A423AD2244B4FF0805200
:103450005A6040BFBFF34F8FBFF36F8F01202BE047
:10346000484601F049F94FF0FF3025E0164B1C604B
:103470001368012BCAD1184D05F18C062846FFF7B9
:1034800075F81435B542F9D1154E3046FFF76EF890
:10349000144D2846FFF76AF81348FFF767F81348FA
:1034A000FFF764F81248FFF761F8124B1E60124BE9
:1034B0001D60ABE74FF0FF30BDE8F88F0120FBE760
:1034C0000120F9E774010020DC000020D401002075
:1034D0008401002088010020E800002000ED00E0C9
:1034E0008C010020A0010020C0010020EC01002080
:1034F000D8010020E0000020E400002038B5044698
:10350000FFF758F93CB3251D2846FFF761F8A36A79
:103510001BB104F11800FFF75BF81E4A1368013372
:1035200013601D4B1B68A34218D01C4A1368013B53
:103530001360206B01F0E0F8204601F0DDF8FFF7A2
:10354000A9FEFFF755F9164B1B681BB1124B1B6800
:10355000A3420CD038BD104B1C68D4E72946114853
:10356000FFF712F8104A136801331360E9E70F4BB5
:103570001B684BB90E4B4FF080525A6040BFBFF3EF
:103580004F8FBFF36F8FE5E70A4940F2A54001F086
:10359000A5F9EFE784010020DC0000207401002081
:1035A000D4010020EC0100207801002080010020DF
:1035B00000ED00E0087D030000B583B0154B0193DA
:1035C00000230093802214491448FFF7B7FE012816
:1035D00005D0B0F1FF3F16D003B05DF804FB00F05A
:1035E00023FE0128F5D1A02383F311880C4B4FF063
:1035F000FF321A600B4B01221A600B4B00221A603B
:10360000FFF76EF8E8E7094940F2DC7001F066F96F
:10361000E2E700BFB4010020507D0300ED38010057
:10362000B8010020D401002000020020087D030022
:10363000024A136801331360704700BF8001002005
:10364000014B1868704700BF0002002010B5044607
:10365000084B1B68084A12680344934204D8054B80
:10366000186804441C6010BD044940F6C91001F0FC
:1036700035F9F4E700020020B8010020087D0300BE
:103680002DE9F047394B1B68002B60D1384B1F6880
:1036900001371F607FB9374B1B681B68DBB9354AA0
:1036A0001168354B186810601960344A136801338B
:1036B0001360FFF7EFFD324B1B68BB4254D82D4B14
:1036C0001B681B686BB10026DFF8A880DFF8C49088
:1036D000DFF8C4A028E02B4940F6332001F0FEF8C3
:1036E000DDE70026264B4FF0FF321A6034E0244A13
:1036F000136031E0E06AD9F80030984288BFC9F819
:10370000000000EB800029460AEB8000FEF73CFF3A
:103710001D4B1B68E26ADB6A9A4228BF0126D8F873
:1037200000301B68002BDDD0D8F80030DB68DC6887
:1037300063689F42DBD3251D2846FEF749FFA36A35
:10374000002BD7D004F11800FEF742FFD2E70F4A52
:1037500013680133136000260D4B1B68002B0CBF50
:1037600030460120BDE8F0870026F5E78001002003
:1037700000020020E0000020E4000020BC01002046
:10378000B8010020087D0300DC0000207C0100203F
:103790000402002088010020E80000202DE9F0410B
:1037A000354B1B68ABB1FFF705F8334B1A68013A8C
:1037B0001A601B68002B4ED1304B1B68002B50D079
:1037C0002F4B1B68002B50D02D4E2E4FDFF8CC8096
:1037D00008E02D494FF4046001F080F8E3E7336816
:1037E000002B40D0F368DC6804F11800FEF7F0FE0F
:1037F000251D2846FEF7ECFEE06A3B68984288BF2C
:10380000386000EB8000294608EB8000FEF7BCFE24
:103810001E4B1B68E26ADB6A9A42E0D31C4B012212
:103820001A60DCE7013C05D0FFF72AFF0028F9D039
:103830003560F7E7174B00221A60154B1C685CB126
:10384000154B4FF080525A6040BFBFF34F8FBFF30C
:103850006F8F012400E00024FEF7CAFF2046BDE878
:10386000F0810024F8E7FFF715FD0A4B1C68002CD7
:10387000E3D0074E0125D7E7800100207401002026
:10388000C001002088010020087D0300DC0000202A
:10389000040200207C01002000ED00E0E800002090
:1038A00010B560B104460E4B1B6893B9FFF7C0FE1C
:1038B00000212046FFF704FDFFF770FF40B9094BD8
:1038C0004FF080525A6040BFBFF34F8FBFF36F8FEE
:1038D00010BD054940F20F5001F000F8E6E700BFC7
:1038E0008001002000ED00E0087D03002DE9F0419B
:1038F000254D264F264EDFF8AC800EE0254B4FF0CD
:1039000080525A6040BFBFF34F8FBFF36F8F09F0F3
:103910005FFDFFF7A1FC01281ED82B68BBB1FEF7A5
:1039200049FFFB68DC68201DFEF752FE3368013B4F
:1039300033602B68013B2B60FEF75AFF206B00F0D1
:10394000DBFE204600F0D8FE2B68002BE7D1D8F82C
:103950000030012BD2D8DAE7FFF76AFE0E4B1A6867
:103960000E4B1B689A4208D3FFF776FC012801D959
:1039700012F012FBFFF712FFCFE7094940F6EE40C5
:1039800000F0ACFFF0E700BF78010020EC01002060
:103990007401002000ED00E0B801002000020020CA
:1039A000087D0300E8000020F8B5234B1B681BB11D
:1039B000224B01221A60F8BD204B00221A60204BD6
:1039C0001C6804EB84039B001E4AD3588BB91E4F1E
:1039D0004FF43566154605E0013C04EB840355F8C9
:1039E000233033B9002CF7D13946304600F076FF4A
:1039F000F2E7144B04EB840203EB8202516849683E
:103A0000516004EB840203EB8203083399420BD02C
:103A100004EB84020B4B03EB82035B68DA680B4B0D
:103A20001A60074B1C60C6E749681346054A02EB5B
:103A300083035960ECE700BF8001002004020020EE
:103A400088010020E8000020087D0300DC00002041
:103A500038B50C46054650B1084B19681831284650
:103A6000FEF79DFD01212046FFF72AFC38BD0449E1
:103A70004FF4366000F032FFEEE700BFDC000020BC
:103A8000087D030070B50C461546064688B10F4BFD
:103A90001B68A3B10E4B1A6844F000449461196886
:103AA00018313046FEF770FD01212846FFF708FC6B
:103AB00070BD084940F6713000F010FFE7E7054996
:103AC00040F6753000F00AFFE4E700BF80010020F7
:103AD000DC000020087D030070B50D461446064644
:103AE00070B10A4B196818313046FEF74DFD002CB5
:103AF00021460CBF28464FF0FF30FFF7E1FB70BDB9
:103B0000034940F68B3000F0E9FEEAE7DC000020D4
:103B1000087D030038B5C368DC6844B304F11805B8
:103B20002846FEF755FD174B1B6833BB251D28465D
:103B3000FEF74EFDE06A144B1B68984284BF124B9F
:103B4000186000EB80002946104B03EB8000FEF765
:103B50001BFD0F4B1B68E26ADB6A9A4283BF01249C
:103B60000C4B1C600024FFF795FB204638BD0A492A
:103B700040F6BB3000F0B2FED0E729460748FEF71A
:103B800003FDE6E78001002088010020E800002016
:103B9000DC00002004020020087D0300C00100209A
:103BA00038B504460D461A4B1B6823B345F0004553
:103BB0002560E5682DB32046FEF70AFD2C1D204642
:103BC000FEF706FDE86A134B1B68984284BF114B51
:103BD000186000EB800021460F4B03EB8000FEF7DE
:103BE000D3FC0E4B1B68EA6ADB6A9A4202D90C4B83
:103BF00001221A6038BD0B4940F6F23000F06EFE2B
:103C0000D4E7084940F6FA3000F068FED3E700BF79
:103C10008001002088010020E8000020DC00002056
:103C200004020020087D0300034B1B680360034B64
:103C30001B684360704700BFBC01002000020020E9
:103C400070B50C460546B8B1E4B1FEF7B3FD184BAC
:103C50001A682368B3F1FF3F22D0696815480068ED
:103C60002E68864201D091421FD9501A83420FD844
:103C700000232360012414E00F4940F6264000F0A1
:103C80002DFEE1E70C4940F6274000F027FEDCE777
:103C90009B1A0B4423602846FFF7C6FF002400E070
:103CA0000024FEF7A5FD204670BD0124F9E700BF02
:103CB00000020020BC010020087D0300014B01220E
:103CC0001A60704704020020094B1B6863B9094B56
:103CD0001B685BB9084B1868084B1B68013B98428E
:103CE00014BF012002207047002070470020704759
:103CF000C001002004020020D8010020740100202F
:103D0000054B1B6833B1054B1B68002B0CBF022011
:103D10000020704701207047D4010020800100205E
:103D2000002840D038B50446C36A204A1268D26AD7
:103D300093422FD28269002A05DB1C4A1268D26A9C
:103D4000C2F10702826103EB8303194A02EB83038A
:103D500062699A4205D0154B1B68DB6AE362012059
:103D600020E0251D2846FEF733FC104B1B68D86A5F
:103D7000E062104B1B68984209D800EB800029468E
:103D80000B4B03EB8000FEF7FFFB01200AE0094B21
:103D90001860F2E7054B1B68006CDB6A98422CBF89
:103DA0000020012038BD0020704700BFDC0000204B
:103DB000E800002088010020002835D038B50446EE
:103DC0001B4B1B68834204D01A4940F63B7000F03D
:103DD00085FD636C4BB1636C013B6364E16A226CEB
:103DE000914223D03BB1002038BD124940F63C70CF
:103DF00000F074FDEFE7251D2846FEF7E9FB206C77
:103E0000E062C0F10703A3610B4B1B68984284BFBB
:103E1000094B186000EB80002946084B03EB80003B
:103E2000FEF7B2FB0120DFE7002070470020DBE750
:103E3000DC000020087D030088010020E80000204D
:103E4000002843D038B50C460546436C53B1296C65
:103E50008C4238BF0C46EB6AA34202D06B6C012B3C
:103E600006D038BD1A4940F68A7000F037FDEEE7FB
:103E7000184B1B68AB4223D0EB6AEC62AA69002A9C
:103E8000A4BFC4F10704AC6103EB8303124A02EB45
:103E900083036A699A42E4D12C1D2046FEF798FB01
:103EA000E86A0E4B1B68984284BF0C4B186000EB0D
:103EB00080002146084B03EB8000FEF765FBD0E74E
:103EC000034940F6A57000F009FDD5E7704700BF33
:103ED000087D0300DC000020E800002088010020AD
:103EE000044B1A68906919681A68CB6AC3F1070312
:103EF00093617047DC000020054B1B6823B1044B25
:103F00001A68536C01335364014B1868704700BF43
:103F1000DC000020F8B506460F4614461D46FEF7A5
:103F200049FC214B1B6893F84C20D2B2022A0AD0DC
:103F30001D4B1A68906C20EA060696641B680122E5
:103F400083F84C20CDB9FEF753FCFEF733FC1CB1CF
:103F5000154B1B689B6C2360134B1B6893F84C300C
:103F6000DBB2022B17D000240F4B1B68002283F812
:103F70004C20FEF73DFC2046F8BD11462846FFF7D1
:103F80009FF90A4B4FF080525A6040BFBFF34F8FEA
:103F9000BFF36F8FD7E7044B1B68996C21EA0707C3
:103FA0009F640124E0E700BFDC00002000ED00E09A
:103FB000F8B50F4615461E46044688B1FEF7FAFBD3
:103FC0000EB1A36C336094F84C30DBB2022284F85B
:103FD0004C206A1E032A0CD8DFE802F008121618DB
:103FE000254941F2D61000F079FCE7E7A16C0F43B8
:103FF000A764012B0ED00124FEF7FAFB2046F8BD82
:10400000A26C0132A264F4E7A764F2E7022B2ED07F
:10401000A764EEE7251D2846FEF7DAFAE06A174B9B
:104020001B68984284BF154B186000EB800029463E
:10403000134B03EB8000FEF7A7FAA36A23B10E49E6
:1040400041F20E2000F04AFCFFF724F90D4B1B68EB
:10405000E26ADB6A9A420CD90B4B4FF080525A60ED
:1040600040BFBFF34F8FBFF36F8F0124C4E700241D
:10407000C2E70124C0E700BF087D030088010020DB
:10408000E8000020DC00002000ED00E02DE9F04118
:104090000F4615461E460446B0B1FEF7BFFBEFF3D0
:1040A0001188A02383F311880EB1A36C336094F8B8
:1040B0004C30DBB2022284F84C206A1E032A0CD852
:1040C000DFE802F008121618274941F2412000F0FB
:1040D00005FCE2E7A16C0F43A764012B0ED0012081
:1040E00088F31188BDE8F081A26C0132A264F4E784
:1040F000A764F2E7022B33D0A764EEE7A36A23B1EB
:10410000194941F2882000F0E9FB184B1B68EBB914
:10411000251D2846FEF75CFAE06A154B1B6898429D
:1041200084BF134B186000EB80002946114B03EB52
:104130008000FEF729FA104B1B68E26ADB6A9A429C
:1041400010D9069B43B101201860C9E704F118019A
:104150000A48FEF719FAEEE70120094B1860BFE79D
:104160000020BDE70120BBE7087D0300800100209F
:1041700088010020E8000020DC000020C0010020B1
:104180000402002008B54160006191420CD8D21AA7
:1041900083699A4201D3012008BD011D094B1868AB
:1041A000FEF7FDF90020F7E79A4201D2994206D2C4
:1041B000011D054B1868FEF7F2F90020ECE701201D
:1041C000EAE700BF0C0200200802002038B5FEF725
:1041D000F1FA0F4B1B6813B1FEF70AFB38BD0D4D0A
:1041E0002846FEF7C3F90C4C2046FEF7BFF90B4BEF
:1041F0001D600B4B1C60002210210320FEF768FCA1
:10420000034B18600028E7D00649FEF7BFFFE3E73D
:104210003C0200201002002024020020080200209E
:104220000C020020587D030000B583B0FFF7CEFFDD
:104230000B4B1B685BB10B4B0193022300930023D4
:104240004FF4007208490948FFF778F828B908497F
:104250004FF4887000F042FB002003B05DF804FBCF
:104260003C02002040020020607D030081430100E9
:10427000687D0300F0B585B00C4615461E4607461E
:10428000B0B1124B1868F8B1009401950297052C53
:1042900014DCFFF735FD02284FF000030CBF0A9A2B
:1042A0001A46694609480068FEF734FC05B0F0BDBF
:1042B000074940F2831000F011FBE2E70023324689
:1042C0006946FEF7F7FCF1E70020EFE73C0200202B
:1042D000687D03002DE9F04F83B08246FFF7B0F907
:1042E0000646234B1B68834208D80023CAF80030D7
:1042F0001F4B1E60304603B0BDE8F08F1D4D4FF0E0
:104300000008DFF878902B681A6842B3DB681F68F2
:10431000DC6804F1040B5846FEF75AF9636A20463C
:104320009847E369012BEED1A3693B449F4206D233
:104330006360246159462868FEF731F9E3E7CDF858
:10434000008043463A4641462046FFF793FF002847
:10435000D9D1494640F26F3000F0C0FAD3E7064A9F
:1043600010680449086013600123CAF80030BFE7F1
:1043700038020020080200200C020020687D0300A3
:104380002DE9F04389B0694E694DDFF8B08133689B
:104390001F6877B1DB681F68FFF74AF904A8FFF7C9
:1043A00099FF0446049B002B50D1874222D900225A
:1043B0000EE0FFF73DF904A8FFF78CFF0446049BCD
:1043C000002B43D15B4B1B681A68B2FA82F2520988
:1043D000391B2868FEF718FFFFF7E0F9002837D1EE
:1043E000554B4FF080525A6040BFBFF34F8FBFF321
:1043F0006F8F2DE0FFF7D2F93368DB68D3F80C90AC
:1044000009F10400FEF7E4F8D9F81C30012B04D0C0
:10441000D9F82430484698471AE0D9F818103B4696
:10442000224639444846FFF7ADFE0028F0D000216F
:1044300000910B463A464846FFF71CFF0028E7D19B
:10444000414640F2E51000F049FAE1E7FFF7A6F92E
:10445000002406E007990698059B9847049B002BCB
:1044600009DA224604A92868FEF7CEFC00288ED07F
:10447000049B002BEEDB069F7B6913B1381DFEF712
:10448000A7F803A8FFF726FF8146049B092BE8D86D
:1044900001A252F823F000BFC1440100C144010051
:1044A000C1440100634401000145010023450100AE
:1044B000C1440100C1440100634401000145010001
:1044C000059BB969024619443846FFF75BFE002890
:1044D000BED07B6A38469847FB69012BB8D1BA69D0
:1044E000002100910B46059802443846FFF7C2FEB2
:1044F0000028ADD1414640F2FE2000F0EFF9A7E7D9
:10450000059BBB613BB1B9694B464A4649443846B5
:10451000FFF738FE9CE7414640F2153000F0DEF927
:10452000F1E7384600F0E8F892E700BF0802002003
:104530003C0200200C02002000ED00E0687D03003A
:1045400010B584B014461A466FF001030093019031
:10455000029103940023694602480068FEF7AAFB13
:1045600004B010BD3C020020154B1A461B68834264
:10457000FBD3516802EB010C604509D0416800EBA8
:10458000010C634509D00360904218BF106070476A
:104590004068014451601046F0E710B4094C2468AB
:1045A000A3420BD05B681944416013681B68036029
:1045B000904218BF10605DF8044B70470460F7E745
:1045C00054CA002044020020F8B50446FFF730F832
:1045D000424B1B68B3B1424B1B681C4278D1002C84
:1045E00076D004F1080514F0070F1CBF25F007056D
:1045F0000835002D6CD03B4B1B68AB4268D33A4A60
:10460000146827E0394A12F0070F1ED0D11D21F09F
:10461000070102F548435B1A0A463348026000214D
:1046200041601344083B23F007032C4803605960A2
:104630001960991A516013602D4B1960294B19604C
:10464000274B4FF000421A60C5E74FF44843E4E7B8
:1046500022461C466368AB4202D22368002BF7D186
:104660001E4B1B68A34233D01668083623681360BC
:1046700063685B1B102B0AD9671917F0070F22D14B
:1046800063685B1B7B6065603846FFF76DFF62689F
:1046900014490B689B1A0B60154909688B423CBF93
:1046A00013490B600E4B1B681343636000232360A8
:1046B000FFF774F816F0070F0DD00E4940F2031003
:1046C00000F00CF907E00B49C32000F007F9D7E729
:1046D000FFF764F800263046F8BD00BF4402002012
:1046E00048CA00204CCA002054CA002048020020BA
:1046F00050CA0020B07D0300002840D010B5044609
:1047000050F8042C1E4B1B681A4211D050F8083C7C
:10471000F3B11C494FF48C7000F0E0F854F8043CFD
:10472000174A1268134202D054F8081CA1B110BDF8
:10473000144940F2171000F0D1F854F8083C002B4F
:10474000E7D154F8043C0E4A12681342EFD003E05C
:1047500054F8043C0A4A126823EA020344F8043C71
:10476000FEF766FF084A54F8043C11680B441360D6
:10477000A4F10800FFF7F8FEFFF710F8D7E770473D
:1047800048CA0020B07D03004CCA002082B001233B
:104790008DF807309DF80730134B186059609A6008
:1047A00044F20103984213D044F20203984207D125
:1047B0000D4BDA60DA6812889A61DA685268DA6159
:1047C00072B69DF80730002BFBD162B602B070477D
:1047D000054B1A611A6992685A611A6912689A61DE
:1047E0001A695268DA61EBE75CCA002000B583B051
:1047F00002900091019244F2010071466A4600F075
:1048000003F803B000BD000008B572B6044BD3F83E
:10481000F03013F0010F00D000BEFFF7B7FF08BD66
:1048200000ED00E072B6024A13680133136070476E
:104830007CCA0020034A1368013B136003B962B6C7
:10484000704700BF7CCA0020EFF30583C3F3080361
:1048500033B9EFF3148080F0010000F001007047DD
:104860000120704708B5FFF7EFFF012802D1FFF7DD
:10487000D9FF08BD0249432000F030F8F7E700BF38
:10488000087E030008B5FFF7DFFF012802D1FFF71C
:10489000D1FF08BD0249512000F020F8F7E700BF22
:1048A000087E0300EFF30583C3F308030BB90F2061
:1048B0007047103B5AB2002A08DB02F1604202F551
:1048C000614292F800034009C0B2704703F00F0341
:1048D000014AD05C4009F7E714ED00E000B583B071
:1048E000ADF8000001916A46002144F20200FFF792
:1048F0008BFF03B05DF804FB034653E8000F00EAAA
:10490000010243E8002C9CF0000FF6D1704708B577
:104910000021FFF7F1FF08BD00B583B00378012B3C
:1049200006D0022B4ED0002B66D003B05DF804FBFE
:10493000037A83B93F4B1B783F4AD35C2BB10122EA
:104940003E493F4808F092FAEFE701223B493D48D3
:1049500007F04EFEE9E7436819783B4800F0A5F9F7
:1049600090B101228DF800200190384B1B686846F9
:104970009847354A9168D36892885B1A9A4210D258
:10498000334B01221A70D0E72F4B9A68DB689A42AA
:10499000EFD000238DF800302C4B1B6868469847F9
:1049A000E7E7244B1B78244AD35C2BB1012223492F
:1049B000234808F05BFAB8E701222049214807F0B4
:1049C00017FEB2E702238DF80030C3680193194B3C
:1049D0001B78194AD35C4BB101221849184808F0DA
:1049E00045FA1A4B1B68684698479EE7012213490F
:1049F000144807F0FDFDF4E71649174800F069F97F
:104A000038B103238DF80030104B1B686846984777
:104A10008BE7084B1B78084AD35C2BB101220D4968
:104A2000074808F0A1F980E701220A49054807F084
:104A300065FD7AE700000020C0CF0020A8CA002052
:104A4000040000200C00002084CA002080CA00203E
:104A500094CA0020ACCA002098CA0020F0B589B0E2
:104A60001E462E4B1A60002956D004460D468A88F1
:104A700009682B4800F006F9034610B1184609B042
:104A8000F0BDAA89A968274800F0FCF80346002871
:104A9000F4D16D46244F0FCF0FC597E80F0085E87E
:104AA0000F0063690693237C003B18BF01238DF838
:104AB00014308DF81C60637C002B14BF0E23002380
:104AC0008DF81530E3680293A3680393236801937C
:104AD00063680093154A6946154807F0A5F903462F
:104AE0000028CBD1134A002111702268B2F1FF3F98
:104AF000C4D00F4B1B78104AD35C33B101220F494D
:104B00000F4808F0B3F90346B8E701220B490D48F6
:104B100007F06EFD0346B1E70723AFE780CA002028
:104B200084CA002098CA0020AC7E03001949010005
:104B30000000002094CA0020C0CF0020A8CA002096
:104B4000040000200C00002008B5044800F0D2F852
:104B500000B108BD024800F0CDF8FAE784CA002091
:104B600098CA002038B5044648B1144B1D78214638
:104B7000134800F0AEF8044635B9204638BD114957
:104B8000CA20FFF7ABFEF0E70C4B00221A700E4B69
:104B90001B780E4AD35C5BB101220D490D4808F029
:104BA00065F90028E9D0074AD621FFF71FFEE4E7A0
:104BB00001220749084807F01BFDF2E794CA0020CC
:104BC00084CA00205C7E030000000020C0CF0020CB
:104BD000A8CA0020040000200C00002010B50146E7
:104BE000164800F062F8044608B1204610BD144B88
:104BF0001B78144AD35CB3B1134808F0A7F8002817
:104C0000F3D112490D4800F064F80028EDD10C4BA7
:104C10001B780C4AD35C53B101220C490A4808F0B6
:104C2000A3F80446E1E70A4807F05CFCE7E7012245
:104C30000649074807F062FC0446D6E798CA0020F8
:104C400000000020C0CF002004000020ACCA0020DB
:104C50000C00002008B5074B1B78074AD35C23B132
:104C6000064807F0A9FF002008BD054807F08CFBA7
:104C7000F9E700BF00000020C0CF002004000020A2
:104C80000C0000200B4651B15AB1511E11420AD1FD
:104C90000360818000238360C360184670470E2044
:104CA0007047092070470920704710B48468C368B2
:104CB00082881B1B9A4203D204205DF8044B704784
:104CC000C3681A4003689954C3680133C360002065
:104CD000F3E78268C3689A420AD0826883881340E7
:104CE0000268D35C0B7083680133836000207047D7
:104CF00005207047C36883600020704710B510F02E
:104D0000800F07D100F00F04082C11D80B4800EBDE
:104D1000C40010BD00F00F04082C03D8084800EBB5
:104D2000C400F6E707494FF4CC70FFF7D7FDF5E76D
:104D300004494FF4CF70FFF7D1FDE7E704CB002023
:104D4000BCCA0020CC7E030070B506460C46FFF7B7
:104D5000D5FF054604601CB163681B68436070BDE5
:104D600016F07F0F02D000236B60F8E702494FF482
:104D7000E170FFF7B3FDF6E7CC7E030008B50378DA
:104D8000052B03D0084B1B68984708BD074BD3F889
:104D90008424D3F8803413F0FF0FF3D1D2B2044B44
:104DA000052A08BF1846EDE7B0CA0020007002408F
:104DB000287F030008B520B9054B1B6805489847B4
:104DC00008BD054940F27B20FFF788FDF4E700BFEE
:104DD000B0CA00202C7F0300CC7E030008B5012858
:104DE0000DD0022810D028B10A4940F26220FFF706
:104DF00075FD03E0084B1B680848984708BD064B43
:104E00001B6807489847F9E7034B1B680548984714
:104E1000F4E700BFCC7E0300B0CA0020247F03006B
:104E2000207F03001C7F03002DE9F04F89B004466A
:104E30008A46934601930026069601273546B046DA
:104E400001E008F1010863685E683B462A46214696
:104E500006A8B0470028F4D1464600238DF8173045
:104E60000393002E44D099461D4601271FE09DF86C
:104E70001730129A136001990B7081F801A06268D3
:104E80005568023B8A1C214603A8A84700202CE055
:104E90009DF817306268D2F80480023B0022214658
:104EA00003A8C0479DF817301D44AE421CD9636863
:104EB000D3F804803B460DF11702214603A8C047F2
:104EC0006368D3F804803B460DF10B02214603A82A
:104ED000C0479DF80B305345DAD1CB45C7D009F117
:104EE00001095FFA89F9D3E7052009B0BDE8F08F21
:104EF0000520FAE72DE9F04782B0044602F014FCE1
:104F000040B13C4805F0ACFB804648B1404602B099
:104F1000BDE8F087384940F23130FFF7DFFCF0E7B9
:104F20000025364B1D70364B1D60364B1D604826E4
:104F300032462946344814F09AF932462946334815
:104F400014F095F994B1324B94E8070083E8070018
:104F500090B1002006F008FF08B185280FD1474620
:104F60002C4E96F8089006F1090A1BE0284B2A4AB5
:104F70001A605D601D72ECE7274A1A60E9E71E4A75
:104F800040F25F31FFF732FCE9E7AB7855FA84F283
:104F90003146D05CFFF7D8FE01346A78E3B29A421A
:104FA000F3D80137FBB2994510D903EB43055544BB
:104FB0004446F2E710494FF48870FFF78FFC0CE08D
:104FC0000D4940F21110FFF789FC09E00B238DF821
:104FD0000430104B5C68002CECD02368002BEFD021
:104FE000236801A90B489847804600288ED005F019
:104FF0001DF98BE77D4D0100CC7E030055CB0020D1
:105000004CCB002050CB0020BCCA002004CB002099
:10501000B0CA0020E07F0300A555010008B505F0E7
:105020005DFA68B105F062FA60B9074806F0B8FEAB
:1050300038B1064A40F2C231FFF7D8FB002000E049
:10504000082008BD0820FCE7187F0300CC7E030081
:1050500008B505F003F908BD08B505F051FA10B917
:1050600006F00EFD08BD034940F2D130FFF736FCD3
:10507000F6E700BFCC7E030008B505F037FA60B153
:105080004FF08043D3F8382412F0020F0BD1D3F83D
:10509000382412F0010FF5D109E005494FF476707C
:1050A000FFF71CFCECE7034B1B680348984708BD5F
:1050B000CC7E0300B0CA0020407F030000B583B05F
:1050C00082238DF80430034B1B6801A8984703B076
:1050D0005DF804FBB0CA00202DE9F04182B006461D
:1050E000D8B17368FBB173681B6813B333681B686E
:1050F00023B1464940F26D50FFF7F0FB05F0F6F999
:1051000010B905F0EBF920B9404940F27150FFF7B2
:10511000E5FB002706F1090820E03C4940F26A500F
:10512000FFF7DCFBDDE7394940F26B50FFF7D6FBB8
:10513000D9E7364940F26C50FFF7D0FBD6E7AB78A1
:1051400055FA84F2D05CFFF7D9FD01340368002BD7
:105150003ED16A78E3B29A42F1D80137327AFBB293
:105160009A421AD903EB430545440024F1E7AB7892
:1051700055FA84F23146D05CFFF7E6FD01346A78D7
:10518000E3B29A42F3D80137327AFBB29A4223D97A
:1051900003EB430545440024F1E7002706F1090825
:1051A000F2E723681C682368FBB1B342F9D13946A2
:1051B0002846FFF793FBF4E714494FF48870FFF794
:1051C0008DFB19E0114940F21110FFF787FB17E042
:1051D000112002B0BDE8F0810D4B1B6823B10C4CCF
:1051E0000A4F40F29755E0E7094C26600B238DF8F3
:1051F00004307368002BDFD073681B68002BE1D08C
:1052000073681B6801A930469847E2E7CC7E03002B
:105210004CCB0020024B1878003818BF0120704793
:1052200054CB002010B5044610F0080F03D02046E0
:1052300006F0D0FC10BD06F05BF8204606F066FDD7
:10524000F5E708B506F076FC08BD0000014B1868CC
:10525000704700BF4CCB002030B50546104B186896
:10526000E8B1047A9CB100F1090200235FFA83FCE3
:10527000A44534BF96464FF0000E9EF800E0AE45C0
:105280000AD0013303325FFA83FC6445EED8036829
:1052900018680028E5D102E009B181F800C030BDEE
:1052A0004CCB002038B51546044650B1636873B145
:1052B00063681B688BB163681B6829462046984762
:1052C00038BD094940F20F10FFF708FBEEE7064929
:1052D0004FF48870FFF702FBEAE7034940F2111030
:1052E000FFF7FCFAE7E700BFCC7E030038B500F01B
:1052F0000F03082B01D9102038BD0C46FFF7FEFC28
:105300000568B5B16B6843B16B681B685BB16B68CE
:105310001B68214628469847EEE707494FF48870F6
:10532000FFF7DCFAF0E7044940F21110FFF7D6FA74
:10533000EDE71020E0E700BFCC7E03002DE9F0414F
:10534000124B1C68FCB10546114E4FF4887840F2B0
:1053500011170CE031464046FFF7C0FA0AE06368D7
:105360001B6829462046984723681C685CB163681F
:10537000002BEFD063681B68002BF0D13146384614
:10538000FFF7ACFAEBE7BDE8F08100BF4CCB0020A3
:10539000CC7E03002DE9F041134B1C680CB305468D
:1053A000124E4FF4887840F211170EE03146404615
:1053B000FFF794FA0CE063681B682946204698477B
:1053C00006280FD123681C6864B16368002BEDD0F8
:1053D00063681B68002BEED131463846FFF77EFA32
:1053E000E9E70620BDE8F0814CCB0020CC7E03002D
:1053F00038B504460D4605F0D1F950B1064B1B787F
:10540000022B01D0082038BD2946204605F0EAF9D4
:10541000F9E70820F7E700BF55CB002038B5044670
:105420000D4605F0BBF950B1064B1B78022B01D09D
:10543000082038BD2946204605F08EFAF9E70820F5
:10544000F7E700BF55CB0020F8B505460C461646D9
:1054500043689B681BB19847062800D0F8BD2B7A9B
:10546000A3421DD316BB2B7AA34283BF093504EB9D
:105470004404641900246678D6B100252F4662786A
:10548000EBB29A4283BFA3785B191B193B4618788D
:10549000FFF7C8FE0135EBB29E42F0D80020DDE7F1
:1054A000044940F2F920FFF719FADBE70720D5E7B6
:1054B0000020D3E7CC7E0300F8B504460D464368D0
:1054C000DB6803B19847237AAB421BD3237AAB4204
:1054D00083BF093405EB45052D1900256E7886B18B
:1054E000002427466A78E3B29A4283BFAB781B193F
:1054F0005B193B46187806F01DFB0134E3B29E426F
:10550000F0D8F8BD02494FF44670FFF7E7F9DDE740
:10551000CC7E030008B543681B690BB1984708BDF2
:105520000020FCE72DE9F843114B1D68EDB1002781
:10553000DFF8409012E00134E3B2B3420BD23A46B6
:10554000E1B22846FFF780FF0028F4D049464046E4
:10555000FFF7C4F9EFE72B681D6835B12E7A002EEE
:10556000F9D0002440F26A78E9E7BDE8F88300BF8B
:105570004CCB0020CC7E030070B5094B1D6875B183
:105580002E7A46B10024E1B22846FFF795FF013498
:10559000E3B2B342F7D32B681D68002DF0D170BD84
:1055A0004CCB00202DE9F04104468C4B1B68002BAE
:1055B00000F09180FFF776F9052840F29280237879
:1055C000852B00F2CD82DFE813F08201B701510292
:1055D000E2010F027D028902CB02B002B902C202CF
:1055E000CB02CB02CB02CB027402CB02CB02CB02AA
:1055F000CB02CB02CB02CB02CB02CB02CB02CB0243
:10560000CB02CB02CB02CB02CB02CB02CB02CB0232
:10561000CB02CB02CB02CB02CB02CB02CB02CB0222
:10562000CB02CB02CB02CB02CB02CB02CB02CB0212
:10563000CB02CB02CB02CB02CB02CB02CB02CB0202
:10564000CB02CB02CB02CB02CB02CB02CB02CB02F2
:10565000CB02CB02CB02CB02CB02CB02CB02CB02E2
:10566000CB02CB02CB02CB02CB02CB02CB02CB02D2
:10567000CB02CB02CB02CB02CB02CB02CB02CB02C2
:10568000CB02CB02CB02CB02CB02CB02CB02CB02B2
:10569000CB02CB02CB02CB02CB02CB02CB02CB02A2
:1056A000CB02CB02CB02CB02CB02CB02CB02CB0292
:1056B000CB02CB02CB02CB02CB02CB02CB02CB0282
:1056C000CB02CB02CB02CB02CB02FA009200C70086
:1056D000250144018302424940F22540FFF7FEF8CC
:1056E00068E73F4940F22C40FFF7F8F867E73D4C88
:1056F0003D4B5A682146186890472046FFF71EFE2A
:105700003A4B5B680BB10D209847FFF735FF00F06F
:105710001DFB374B1B68E3B1012000F0010004F0D2
:105720009BFE344B1B78022B04D0053BDBB2032BD2
:1057300000F21F8202F0ACF82E4B1B78022B01D036
:10574000082B01D104F022FF2A4B01221A70BDE878
:10575000F081264B187AE0E7FFF70EFF06F060F9BC
:10576000244B1B78022B04D0053BDBB2032B00F249
:10577000038202F08DF81F4B1B78022B01D0082BFF
:1057800001D104F003FF1B4B00221A701A4C204673
:10579000FFF7D4FD144B5A68214618689047134B05
:1057A0005B680BB10E209847124B1B78022B03D07D
:1057B000053BDBB2032BCAD802F06AF8C7E70D4BF2
:1057C0001B78062B1AD0072B1ED0052BBFD104F057
:1057D000E7FE084B02221A70B9E700BF4CCB00204D
:1057E000CC7E03003C7F030004CB0020B0CA002025
:1057F00050CB002055CB0020387F030004F0D0FEB2
:10580000924B08221A70A2E704F0CAFE8F4B0222C4
:105810001A709CE78D4B1B78032B98D106F060F92A
:10582000002894D0894B1B78022B04D0053BDBB2B7
:10583000032B00F2A48102F02BF8844B1B78022B7F
:1058400001D0082B01D104F0A1FE804B04221A7074
:105850007DE77E4B1B78032B16D004F05FFE0028FB
:105860003FF475AF794B1B78022B07D0053BDBB2B9
:10587000032B24D8754B1B78082B01D104F086FE2E
:10588000724B06221A7062E706F02AF90028E4D06B
:105890006E4B1B78022B04D0053BDBB2032B00F2CE
:1058A000718101F0F5FF694B1B78022B01D0082BA9
:1058B00001D104F06BFE654B04221A70CDE76448F9
:1058C00001F09CFF614B1B78022BD7D0D4E75F4BD4
:1058D0001B78032B11D0082B0FD05E4B5B680BB1EC
:1058E000002098475C4B1D68002D3FF430AF5B4EA5
:1058F0004FF4887840F2111712E05948FFF752FE32
:10590000EBE731464046FEF7E9FF0CE06B681B68A9
:105910002146284698472B685D68002D3FF417AF55
:105920006B68002BEDD06B681B68002BEED1314605
:105930003846FEF7D3FFE9E7FFF71EFE00F0FEF959
:10594000424B1B78022B09D0053BDBB2032B16D848
:105950003E4B1B78082B01D004F022FE3B4B022269
:105960001A703C4B5B680BB1012098473D4B5A685D
:105970002146186890472046FFF7E0FCE7E63448E8
:1059800001F03CFF314B1B78022BE7D0E2E72F4BB5
:105990001B78082B16D0022B23D0053BDBB2032B40
:1059A00016D82A4B05221A702A4B5B680BB10320CC
:1059B00098472C4B5A682146186890472046FFF7B5
:1059C000BDFCC4E6214B02221A7004F0F3FDEBE7A4
:1059D0001F4801F013FF1D4B1B78022B01D0082B31
:1059E000DFD104F0D3FDDCE71A4B5B680BB1032079
:1059F00098471D4C1B4B5A68214618689047204613
:105A0000FFF79CFC114B1B78062B0DD0082B0FD0F9
:105A1000022B05D0053BDBB2032B0DD804F0C0FDF3
:105A20000A4B02221A7092E6084B07221A708EE681
:105A3000064B02221A708AE6054801F0DFFE034B8E
:105A40001B78022BECD0082BEAD0E7E755CB0020DF
:105A500014000020B0CA002050CB0020CC7E0300F0
:105A6000347F030004CB0020307F0300474B1B78BA
:105A7000022B03D0053BDBB2032B77D801F008FFE4
:105A8000424B1B78022B01D0082B01D104F07EFD84
:105A90003E4B03221A703E4B5B680BB102209847C5
:105AA0002046FFF74BFC3B4B5A682146186890474D
:105AB0004DE6374B5B680BB10F2098472046FFF748
:105AC0003DFC44E6334B5A682146186890473EE651
:105AD000304B5A6821461868904738E6A078FFF79F
:105AE0000DF905460368A3B16B68C3B16B68214625
:105AF0002868984700283FF42AAEA07810F00F0FCE
:105B00003FF425AE10F0080F7FF421AE05F0A2FBA4
:105B10001DE6214940F20250FEF7E0FEE4E71E498F
:105B200040F20350FEF7DAFEE0E7194B5B680BB179
:105B3000082098472046FFF701FC08E6144B5B68F5
:105B40000BB1092098472046FFF7F8FBFFE5104B03
:105B50005B680BB10A2098472046FFF7EFFBF6E59C
:105B60000D4940F22650FEF7B9FEF0E5074B1B78D1
:105B70008AE7064B1B78E3E5044B1B78FFE5034BF4
:105B80001B785EE6014B1B7891E600BF55CB0020E9
:105B9000B0CA002004CB0020CC7E03000020704758
:105BA00008B5084B1B7883420BD0064B18700528AC
:105BB00004D0054A137823F0020313700348FFF75B
:105BC000F1FC08BD64CB002080CB0020F07F0300F7
:105BD0002DE9F04F87B003900C4602924B68A3B1B9
:105BE000029B402B25D804F02DFF8346E568029BDD
:105BF0009D4228BF1D46002D00F098804FF0000AFE
:105C0000564601230193D04640E00D685DB12B68F4
:105C10001B68002BE4D1A368002BE1D1039A136029
:105C2000536001936CE0434940F24320FEF756FE77
:105C3000EDE7414940F29710FEF750FED3E7002B05
:105C40003DD0204650F8101B4B68D3F804903B46DB
:105C50000BEB0602C847A368DB1BA360E268D21BFC
:105C6000E260ED1B3E4413B14FF0010A07E02768E4
:105C7000002F2CD03B681B6823604FF0010AE368BB
:105C8000002B50D0A36843B3002D35D0A3681F4626
:105C9000AB4228BF2F4661680029D0D03A460BEBB3
:105CA000060013F0BBFAC4F80480A368DB1BA360F2
:105CB000E268D21BE260ED1B3E44002BDFD1BAF15B
:105CC000000FD4D1E36843B9CDF804A0DCE719494B
:105CD00040F24320FEF702FECCE7236823B1CDF863
:105CE00010804FF0010912E063602EB1019B029A0F
:105CF000B24288BF00230193039BC3F800B05E60EB
:105D0000019807B0BDE8F08FA3680133A360216854
:105D10004B685F684B46424604A8B8470028F3D159
:105D2000C4F81080B0E700230193ADE72E460123AD
:105D30000193E1E7447F0300907F030008B5002052
:105D4000FFF770FA8020FFF76DFA08BD08B5002054
:105D5000FFF777FA8020FFF774FA08BD38B50546DB
:105D60000C4605F089FBA84206D1044B94E80300D9
:105D700083E80300002038BD1020FCE784CB00201E
:105D800070B584B00D46C3881E46934228BF1646A0
:105D9000934212D800240195029603940020FEF746
:105DA00061FD01A98020FFF723FB044688B1002094
:105DB000FEF768FD204604B070BD1446802004F054
:105DC000D1FCB4FBF0F202FB1044B4FA84F4640991
:105DD000E1E703498020FFF7C1FF0446E7E700BF82
:105DE000288003002DE9F04F87B00B780E2B1AD8CE
:105DF00005460C46002B00F0EF82013B0D2B00F214
:105E0000ED82DFE813F01D000E002200EB023E00E1
:105E1000AA02EB02EB02EB02EB0270027C028B02A5
:105E20009B02002508E0852B05D1AD4B1B78032B89
:105E300022D0062500E00625284607B0BDE8F08FF1
:105E40000320FFF7ADFE0625F6E7A648FEF75FFD47
:105E500030B1A54B0122DA65BFF36F8FBFF34F8FCF
:105E60009F4B1B780BB10025E6E7A0494FF48760F4
:105E7000FEF734FD0025DFE70420FFF791FE06253D
:105E8000DAE705238DF80C300DF10D0005F058FA16
:105E9000974B00221A609DF80D3003F01F03032B6F
:105EA00000F21F82DFE813F004005301AD01060287
:105EB000CDB19DF80D30C3F3411513F0600F20D123
:105EC000DB0916D19DF80E30013B082B00F23A8118
:105ED000DFE813F0F6003801E6003801E000380191
:105EE000380138011E01814940F25E30FEF7F6FCB0
:105EF000DFE79DF80E30062B1DD0082B00F0B48094
:105F000023B103A8FFF746FA0546D7E1794B0022F3
:105F10005A7001221A70784B1B7813F0020F02D0CE
:105F2000744B03221A70022272490DF10D00FFF723
:105F300027FF054607E19DF81030022B10D0032BF8
:105F40007CD0012BDDD1BDF81330002B00F0B981DE
:105F500012226A490DF10D00FFF712FF0546F2E02B
:105F6000BDF81330002B00F0AC81092B28BF0923AA
:105F70009A46FFF76BF9044600282FD04FF0090B23
:105F80004FF000081DE0594940F2C720FEF7A6FC7B
:105F90001AE056494FF43270FEF7A0FC18E00136C3
:105FA00063685D683B464246214601A8A847002831
:105FB000F5D14D46B344237A1D44EDB223681C68E5
:105FC00074B16368002BDED063685B68002BE0D09F
:105FD000CDF8048046460127A946E1E74FF0090BBA
:105FE000444C52464649204613F018F92571A4F84E
:105FF00002B0FFF70FF918B1E37943F02003E37122
:10600000FFF724F93F4B18603A4A5A60C3F808A0DA
:10601000BDF81320DA600020FEF724FC3A49802006
:10602000FFF7FCF9054618B10020FEF72BFC8AE0CB
:1060300036498020FFF792FE0546F5E7BDF813309C
:10604000002B00F03E81BDF811109DF80F0000F00C
:106050003FFA014600283FF454AF02780DF10D00DD
:10606000FFF78EFE05466EE01D4B1B78052B0DD00D
:10607000042B7FF446AF1F4B00221A7001221D49EA
:106080000DF10D00FFF77CFE05465CE0194B012287
:106090001A70F3E7154940F28230FEF71FFC30E733
:1060A000BDF80F30012B7FF42CAFFFF7B3F80028B9
:1060B00000F0A881104A137843F00203137000E146
:1060C000BDF80F30012B7FF41CAFFFF7A3F80028B9
:1060D00000F09A81084A137823F002031370F0E06D
:1060E00064CB00208CCB002000700240907F030026
:1060F00084CB002090CB002080CB002014800300B4
:10610000F47F030068CB0020308003002880030068
:10611000AD4B1B78043BDBB2012B00F277819DF87D
:106120000F301BB1012B07D007253AE0FFF724FA07
:106130000420FFF735FDC4E0FFF7F4F90520FFF771
:106140002FFDBEE00625062D40F0B880D9E601A956
:106150009DF81100FFF780F8044608B303AA9DF8E4
:106160000410FFF79FF80546062840F0A7809DF829
:106170000D3013F0600F40F0A1809DF80410924A9A
:106180001278DB0910D19DF80E300B2B40F0968071
:10619000052A34D1BDF80F30FF2B29D907258DE012
:1061A000102505F05FF947E69DF80E3033B10A2B54
:1061B00040F08480052A0FD008257FE0052A01D011
:1061C00008257BE0814900230B8002220DF10D00A0
:1061D000FFF7D6FD054671E02046FFF79BF97B49A6
:1061E000087001220DF10D00FFF7CAFD054665E0BC
:1061F0009DF80F202046FFF727F905465EE00825A9
:106200005CE09DF8110010F00F0F05D003A9FFF717
:106210006DF80546062851D19DF80D3013F0600F3A
:1062200040F0E0809DF81140674B1A789DF80E30E1
:10623000012B29D0032B14D00BB10625B1E7052A79
:1062400003D014F00F0F40F0CF80204605F028F85F
:106250005E49088002220DF10D00FFF791FD054611
:106260002CE014F0080F40F0C180BDF80F30002B77
:1062700040F0BE80052A03D014F00F0F40F0BA8022
:10628000204604F0E7FF1CE014F0080F40F0B48053
:10629000BDF80F30002B40F0B180052A03D014F078
:1062A0000F0F40F0AD80204605F022F8204605F0A3
:1062B0002DFD06E003A8FFF76DF80546002D7FF4DD
:1062C00070AF434B1B6843B105F0D6F808B1002509
:1062D000B2E505F057F80025AEE505F0B9F8002560
:1062E000AAE506255DE7384B1B780BB90025A3E529
:1062F000384940F24C40FEF7F1FA00259CE5324B5C
:106300001B78012B04D10020FFF74AFC002593E500
:10631000304940F25240FEF7E1FAF4E74FF0804393
:10632000D3F8385415F0010504D00220FFF738FCEB
:10633000002581E50120FFF733FC7DE5224B1B782A
:10634000012B04D90120FFF72BFC002574E521491E
:1063500040F26640FEF7C2FAF4E7CB78032B3FD059
:106360008B7813F07F0F04D01A4940F27440FEF787
:10637000B5FA174B1B6813B3154A00211160516819
:10638000E07898470546D8B9114B1B6833B1A3781C
:10639000002B7FF451AD04F0F5FF4DE54FF0805335
:1063A000D3F83031082B02D005F052F844E54FF015
:1063B0008053D3F83431002BF6D11D463CE50E2531
:1063C00005F050F838E500BF64CB002090CB0020EA
:1063D00084CB0020907F030006252DE506252BE5C4
:1063E000062529E50625DCE60825DAE60625D8E6B1
:1063F0000625D6E60825D4E60625D2E60625D0E60B
:106400000825CEE60F25CCE60F25CAE60825C8E606
:1064100008B1402202600148704700BF90CB0020C5
:1064200070B586B04FF08052D2F8A830D2F8A420D0
:106430006FEA83436FEA934300929BB20A4A0D21AD
:1064400002A812F049FD02AD084E002404E015F840
:10645000013B06F8013B013402A812F084FF84429C
:10646000F5D306B070BD00BF38800300D0CB00204C
:106470002DE9F0410844144B53F820502B781BB9F8
:10648000AE1C3046BDE8F0810020FFF7C1FF064694
:106490002C7894B10024DFF83480E6270134E4B28C
:1064A0002B7826F8143015F8013F33B11E2CF5D99E
:1064B00041463846FEF712FAF0E7631C5B00DBB298
:1064C00043F440733380DCE7008103004480030021
:1064D00008B568B1052810D80A4A135C7BB10A4A8E
:1064E00052F8230018B100211846FFF7C1FF08BD7C
:1064F00000210846FFF7BCFFF9E70020F7E700207E
:10650000F5E700BF18810300008103004360CA69FA
:106510009A420DD38A6902601A448A610A6F1A444A
:106520000A67C869C01AC861003818BF01207047DF
:1065300001F1280202608B67002070474360CA693E
:106540009A4205D38A6902600B67CB6100207047CD
:1065500001F1280202608B67F8E700002DE9F0479F
:10656000884616461F460A7A944B1A70054600283C
:1065700000F08C802868002800F08E80A0F2123392
:106580007C2B00F21B8518467C2800F21785DFE87B
:1065900010F08700F70001010B011B0125012F01FD
:1065A00034011505150515051505150515059F017A
:1065B000A1011505150515051505AB01C301C80198
:1065C00015051505150503021A021F021505150507
:1065D0001505150529024002450215051505150585
:1065E000150515051505560215051505150515059D
:1065F00021039703A103AB03B50315051505BF03DD
:10660000C903D303DD03E70315051505F103FB03F8
:1066100005040F0415051505190423042D0437047A
:106620003C04150515051505150515051505150574
:10663000150515051505150515051505150515058A
:106640001505150515051505920494041505150580
:106650001505A4041505150515051505D70415051B
:10666000150515051505DE04150515051505150592
:1066700015051505EB04ED0415051505150515059E
:10668000060515051505150515050D054C4940F2BE
:106690000F30FEF723F96DE708232B71002F3BD055
:1066A000002E3ED02B7933700B232B71012F62D932
:1066B00001242B793355013498F814302B71A742FB
:1066C00063D92B793355013402232B71A74266D944
:1066D0002B793355013402232B71A74269D92B79C9
:1066E0003355013402232B71A74272D92B793355CC
:1066F000013498F819302B71A74274D92B7933558E
:10670000013400232B71A74230D92B793355013442
:106710002C4B00221A704CE240F212332B60012005
:106720008BE10B232B71012F25D90124013498F81B
:1067300014302B71BC4228D2013402232B71BC428D
:106740002DD2013402232B71BC4232D201340223F8
:106750002B71BC423DD2013498F819302B71BC42E8
:1067600041D2013400232B71A742D0D840F2193313
:106770002B60012061E140F213332B6001205CE1CA
:106780000EB1002495E70024D0E74FF445732B6049
:10679000012052E10EB1002493E70024CCE740F23F
:1067A00015332B60012048E10EB1002490E700244E
:1067B000C7E740F216332B6001203EE1DFCB00201B
:1067C00020810300DECB00200EB1002487E70024E7
:1067D000BCE740F217332B6001202EE10EB10024FC
:1067E00084E70024B7E74FF446732B60012024E1CF
:1067F000002E00F01884002480E70EB1002484E706
:10680000002484E709232B71A7425CD9002E00F0F5
:10681000FF832B793355013404232B71A74240F2B7
:10682000FD832B7933550134864B1A7898F808305C
:10683000934283BF08F1090302EB42029B18002335
:10684000814A13601B782B71BC4248D2002E4DD078
:106850002B793355013400232B71A74257D92B795B
:1068600033550134784B1B685B782B71A74249D9AB
:106870002B7933550134744B1B681B7898F814201E
:106880009A4253D098F816209A4240F0CC800A23BE
:106890002B71BC4280F0A180002E00F0A5802B79E6
:1068A0003355013400232B71A74240F2AD802B7980
:1068B0003355013400232B71A74240F2A0802B797D
:1068C0003355013449E04FF448732B600120B4E0A4
:1068D00000249BE70EB10024A3E70024A3E740F2C5
:1068E00026332B600120A8E00024AFE70134002309
:1068F0002B71BC420BD20134534B1B685B782B715C
:10690000A742B7D84FF44A732B60012095E040F2BC
:1069100027332B60012090E0002E00F077830024C5
:106920009DE70EB10024A3E70024A3E702232B7107
:10693000BC422CD296B32B793355013402232B71F0
:10694000A7423BD92B793355013498F819302B7174
:10695000A7422ED92B793355013400232B71A7423E
:1069600067D90EB12B7933550134374B1B681B782F
:1069700098F814209A426BD098F816209A4200F0AA
:106980000581324940F26230FDF7A8FFFEE04FF486
:106990004B732B60012050E00024CBE7013402232D
:1069A0002B71BC420AD2013498F819302B71A742DE
:1069B000D2D840F22E332B6001203EE040F22D333E
:1069C0002B60012039E0002E00F01C830024B9E781
:1069D0000EB10024BEE70024BEE740F233332B6043
:1069E00001202AE0002457E7013400232B71BC4228
:1069F0000AD2013400232B71A7423FF662AF40F266
:106A000035332B60012018E04FF44D732B600120CB
:106A100013E0002E00F0F882002448E70EB10024B5
:106A20004DE700244DE7094940F23930FDF756FFA4
:106A300093E74FF44F732B600120BDE8F0870024EB
:106A40008FE700BFDECB0020E4CB002020810300D5
:106A500005232B71BC4280F0B880002E00F0BC8072
:106A60002B793355013424232B71A74240F2238123
:106A70002B793355013400232B71A74240F2258135
:106A80002B793355013410232B71A74240F2278113
:106A90002B793355013401232B71A74240F2298110
:106AA0002B793355013405232B71A74240F22B81FA
:106AB0002B793355013424232B71A74240F22D81C9
:106AC0002B793355013401232B71A74240F22F81DA
:106AD0002B793355013403232B71A74240F23181C6
:106AE0002B793355013498F816302B71A74240F2B8
:106AF00032812B793355013404232B71A74240F2A4
:106B000034812B793355013424232B71A74240F271
:106B100036812B793355013402232B71A74240F281
:106B200038812B793355013402232B71A74240F26F
:106B30003A812B793355013405232B71A74240F25A
:106B40003C812B793355013424232B71A74240F229
:106B50003E812B793355013406232B71A74240F235
:106B600040812B793355013498F814302B71A742AA
:106B700040F241812B793355013498F816302B714E
:106B8000A74240F293802B7933550134A14B1B6807
:106B90005A78A14B1A70A14B00221A709F4B1A7899
:106BA0009D4B1B789A42C0F03F819D4A1378013378
:106BB00013709B4B1A789B4B1B789A42FFF422AEC2
:106BC00040F299332B60012037E740F241332B60CC
:106BD000012032E7002440E7631C24222A71BB42D3
:106BE00069D2013300222A71BB426ED201331022D6
:106BF0002A71BB4273D2013301222A71BB4278D27F
:106C0000013305222A71BB427DD2013324222A712D
:106C1000BB4280F08280013301222A71BB4280F0A6
:106C20008680013303222A719F4240F28A80013319
:106C300098F816202A719F4240F28D800133042279
:106C40002A719F4240F29180013324222A719F428F
:106C500040F29580013302222A719F4240F29980CE
:106C6000013302222A719F4240F29D8001330522A6
:106C70002A719F4240F2A180013324222A719F424F
:106C800040F2A5805C1C06232B71A74240F2A9802C
:106C9000013498F814302B71BC4280F0AC80013480
:106CA00098F816302B71A7423FF66FAF40F2593378
:106CB0002B600120C1E640F242332B600120BCE68C
:106CC0000EB10024D4E600238BE740F243332B605F
:106CD0000120B2E60EB10024D2E6002386E74FF48D
:106CE00051732B600120A8E60EB10024D0E60023EA
:106CF00081E740F245332B6001209EE60EB100246F
:106D0000CEE600237CE74FF452732B60012094E61B
:106D10000EB10024CCE6002377E740F249332B6024
:106D200001208AE60EB10024CAE6002373E740F290
:106D30004A332B60012080E6002E00F061810024A0
:106D4000C6E640F24B332B60012076E6002E00F0C1
:106D500075810024C4E64FF453732B6001206CE668
:106D6000002E00F04B810024C3E640F24F332B602D
:106D7000012062E6002E00F05F810024C1E64FF49E
:106D800054732B60012058E6002E00F0358100245A
:106D9000BFE640F251332B6001204EE6002E00F09A
:106DA00049810024BDE640F252332B60012044E6C5
:106DB000002E00F01F810024BBE640F255332B600B
:106DC00001203AE6002E00F033810024B9E640F2BB
:106DD00056332B60012030E6002E00F0098100249C
:106DE000B7E640F257332B60012026E6002E00F074
:106DF0001D810024B5E64FF456732B6001201CE67C
:106E0000002E00F0F3800024B4E60EB10024BAE6B0
:106E10000024BAE6E4CB0020DDCB0020E0CB00204C
:106E2000DECB0020DFCB002007232B71A7423DD90A
:106E3000002E00F0D0802B793355013405232B71BF
:106E4000A74240F2CE802B79335501347C4BD3F8E6
:106E500000907C4B93F800A0B9F1000F32D099F864
:106E60000130534583BF99F80230534499444FF0A1
:106E7000000999F800302B71BC4229D20EB12B7950
:106E8000335501346E4B1B681B7898F814209A42D6
:106E900025D098F816209A425BD102232B71BC4270
:106EA00050D20EB12B793355013420E040F26D33CE
:106EB0002B600120C1E50024BAE70EB10024C2E72F
:106EC0000024C2E7604940F24310FDF707FDC6E722
:106ED00040F272332B600120AFE50024CEE703239C
:106EE0002B71BC4227D20EB12B793355013440238C
:106EF0002B71A74233D9002E63D02B79335501343F
:106F000000232B71BC4261D22B79335501344C4B99
:106F10001B681B7898F814209A422CD098F81620F9
:106F20009A4245D100232B71BC423AD20EB12B7943
:106F30003355013429E040F277332B6001207CE5A2
:106F40000024D0E74FF45F732B60012075E5002427
:106F5000A7E73E494FF46070FDF7C0FCC7E740F279
:106F600083332B60012068E50024C4E70EB10024C0
:106F7000CAE70024CAE7D8F820301B782B71BC423E
:106F800008D20EB12B79335501342E4A13780133D0
:106F9000137003E640F289332B6001204DE5002495
:106FA000EFE740F28E332B60012046E50024BDE779
:106FB000264940F29230FDF791FCE6E70020286078
:106FC0003BE5013400232B71A7429FD84FF4617336
:106FD0002B60012031E5013405232B71A7423FF6D8
:106FE00034AF40F26E332B60012026E5002456E6D4
:106FF000002347E6002339E600232BE600231DE6A5
:1070000000230EE60024CEE40024F2E4002472E41F
:10701000013404232B71A7423FF605AC40F2213323
:107020002B60012009E50024FFF79BBB00242FE61D
:10703000002321E6002313E6002305E60023F6E5FE
:10704000E4CB0020E0CB00208081030020810300FE
:1070500038B5044680B12368C3B1236800221A847E
:107060005A62DA629A67DA67C3F88020C3F884202C
:1070700003F134025A6738BD074D29465220FDF707
:107080002DFC29465F20FDF729FCE4E7024960203A
:10709000FDF724FCE1E700BF20810300E8B910B54B
:1070A0000C4639B1236853B123681A7B202A0BD0D0
:1070B000062010BD0A495F20FDF710FCF2E70849E1
:1070C0006020FDF70BFCEFE7D3F80E209A61598A98
:1070D0001A7D99839A770020EBE70320704700BF61
:1070E000208103002DE9F04389B00C460546A0B18C
:1070F000CCB123780E2B1CD8DFE813F000021D0062
:10710000000200021B00220017011B001B00FB01F4
:107110001B0000020002000200029E4940F2DD2036
:10712000FDF7DCFBE4E79B4940F2DE20FDF7D6FBF0
:10713000DFE70624E3E12846FFF78AFF0024DEE1CB
:107140003DB16378DA090AD15B09012B61D00624CD
:10715000D5E190494FF4E470FDF7C0FBF1E7C3F3CC
:10716000411213F0600F03D0012A2DD00624C6E18E
:1071700003F01F03012B01D00624C0E1A378062BE6
:1071800001D00624BBE10023039305A8FFF740F9D3
:10719000064603AB00930346E27821792846FDF7C3
:1071A00043FE05280ED0039B3F2B06D8039A314699
:1071B000601CFEF7E5FD0446A1E17649C920FDF714
:1071C0008DFBF3E706249AE135B12B6873B1A37800
:1071D000212B10D0062492E16E4E31465220FDF74D
:1071E0007DFB31465F20FDF779FBEEE769496020C2
:1071F000FDF774FBEBE7B4F80730072B01D006244A
:107200007DE1296807221831601CFEF7B9FD0446AC
:1072100075E14DB12B688BB12E68A378202B12D06D
:10722000222B3DD006246AE15A4E31465220FDF70A
:1072300055FB31465F20FDF751FBEBE755496020D8
:10724000FDF74CFBE8E7B4F80730072B01D0062424
:1072500055E1C6B12B68A2781A73B4F80720D2B2F0
:107260005A730E3305930692002407942046FDF7C7
:10727000F9FA05A92046FEF7BBF8044640B1002004
:10728000FDF700FB3BE143496020FDF727FBE1E709
:10729000414B0393049503A9FEF760FD0446EEE716
:1072A000B4F80730002B40F02E81328C02F001023E
:1072B000B4F80330338403F00104944200F02581D4
:1072C000EB6923B1C4F10301C9B2284698470CB158
:1072D000002414E12B7A012B40F2348105F10C03D8
:1072E0005A7802B39A781344187804F033FA2B7A58
:1072F000012B40F220810C356B78012B83BFAB78DA
:107300000133ED180025287804F024FA0024746273
:10731000F462B467F467C6F88040C6F8844006F1AA
:1073200034037367EBE00023DEE7D5B12B7A002B43
:1073300000F0FA8005F109035A78C2B19A78134433
:10734000A2781B78934200F0E28012F0800F10D1F7
:10735000E37803F0FD02012A00F0DD8003B303248B
:10736000CDE00E494FF48870FDF7B8FADEE7002350
:10737000E6E7E37823B1032B14BF03240024BEE027
:10738000EB69002B00F0C5800121284698470024B6
:10739000B5E000BF208103009D70010080810300E3
:1073A0002B68002B34D02E6806F10C042B7A012BAD
:1073B00040F2B38005F10C035A78012A83BF9A7812
:1073C00001329B18002393F80080624B05930694CA
:1073D000B46A2CBBF36FC6F880300023F367B36741
:1073E000F36AD3B106F1240306F12C0292E80300FC
:1073F00083E803000023F36205A94046FEF70EF878
:107400000446EB69002B7AD000212846984776E0A5
:1074100051496020FDF762FAC5E700237362F0E787
:10742000D6F88470BC4228BF3C4606F13409224697
:107430004946706A11F0F2FEF36F2344C6F88030BB
