:020000040800F2
:1000000000000220E13F0208E9B8010841B90108F7
:100010005DB9010861B9010865B901080000000077
:10002000000000000000000000000000F11F0208B6
:1000300069B9010800000000812002086DB90108BB
:10004000314002083140020831400208C5B90108B8
:1000500031400208314002083140020831400208B4
:1000600031400208314002083140020831400208A4
:1000700071B90108314002087DB901083140020818
:100080003140020831400208314002083140020884
:100090003140020831400208314002083140020874
:1000A00031400208314002083140020889B9010894
:1000B000F5B9010801BA01083140020831400208CF
:1000C00031400208314002083140020895B9010868
:1000D000314002083140020831400208A1B901084C
:1000E000D1B901083140020831400208314002080C
:1000F0003140020831400208314002083140020814
:100100003140020831400208314002083140020803
:100110003140020831400208ADB9010831400208FF
:1001200031400208314002080DBA0108314002088E
:1001300031400208314002083140020831400208D3
:10014000314002083140020831400208B9B90108C3
:1001500031400208314002083140020831400208B3
:1001600031400208314002083140020831400208A3
:10017000314002083140020831400208000000000E
:100180003140020831400208314002083140020883
:100190003140020831400208314002083140020873
:0C01A000314002083140020831400208E2
:104000000901000909010100004100090303000042
:1040100000000000000000000000000000000000A0
:104020000000000000000000000000000000000090
:104030000000000000000000000000000000000080
:104040000000000000000000000000000000000070
:104050000000000000000000000000000000000060
:104060000000000000000000000000000000000050
:104070000000000000000000000000000000000040
:104080000000000000000000000000000000000030
:104090000000000000000000000000000000000020
:1040A0000000000000000000000000000000000010
:1040B0000000000000000000000000000000000000
:1040C00000000000000000000000000000000000F0
:1040D00000000000000000000000000000000000E0
:1040E00000000000000000000000000000000000D0
:1040F00000000000000000000000000000000000C0
:1041000000000000000000000000000000000000AF
:10411000000000000000000000000000000000009F
:10412000000000000000000000000000000000008F
:10413000000000000000000000000000000000007F
:10414000000000000000000000000000000000006F
:10415000000000000000000000000000000000005F
:10416000000000000000000000000000000000004F
:10417000000000000000000000000000000000003F
:1041800000000000000000000000FFFFFFFFFFFF35
:10419000FFFFFFFFFFFFFFFFFFFFC0A80164C0A8F4
:1041A0000101FFFF000000050014006400BC02D004
:1041B0000734FDFDFDFD00000100CADE0000000027
:1041C000000000000001010500F0490200F40115A3
:1041D0004015401540000000006C07000000000082
:1041E000000000000000000F22EB14A85060F8AAA5
:1041F00036D3D174861414E43D9A1FCAC37ED3FB10
:10420000A84FC434EB2E36010000002E0000000041
:10421000000000000000000000000000000000009E
:10422000000000000000000000000000000000008E
:10423000000000000000000000000000000000007E
:10424000000000000000000000000000000000006E
:10425000000000000000000000000000000000005E
:10426000000000000000000000000000000000004E
:10427000000000000000000000000000000000003E
:10428000000000000000000000000000000000002E
:10429000000000000000000000000000000000001E
:1042A000000000000000000000000000000000000E
:1042B00000000000000000000000000000000000FE
:1042C00000000000000000000000000000000000EE
:1042D00000000000000000000000000000000000DE
:1042E00000000000000000000000000000000000CE
:1042F00000000000000000000000000000000000BE
:1043000000000000000000000000000000000000AD
:10431000000000000000000000000000000000009D
:10432000000000000000000000000000000000008D
:10433000000000000000000000000000000000007D
:10434000000000000000000000000000000000006D
:10435000000000000000000000000000000000005D
:10436000000000000000000000000000000000004D
:10437000000000000000000000000000000000003D
:10438000000000000000000000000000000000002D
:10439000000000000000000000000000000000001D
:1043A000000000000000000000000000000000000D
:1043B00000000000000000000000000000000000FD
:1043C00000000000000000000000000000000000ED
:1043D00000000000000000000000000000000000DD
:1043E00000000000000000000000000000000000CD
:1043F00000000000000000000000000000000000BD
:020000040801F1
:100000001203CADE0FFFFFFFA8860308B0860308AD
:10001000E4850308A8850308070006001303CADE69
:100020000FFFFFFFA8860308B08603082487030894
:10003000E8860308070006001403CADE0FFFFFFF6F
:10004000A8860308B086030834880308F8870308E5
:100050000700060010B5054C237833B9044B13B1E3
:100060000448AFF300800123237010BD000400207A
:1000700000000000C44F030808B5034B1BB103493F
:100080000348AFF3008008BD000000000404002016
:10009000C44F030810F8012B11F8013B012A28BFB7
:1000A0009A42F7D0D01A7047034613F8012B002A62
:1000B000FBD1181A01387047000000000000000052
:1000C00001F0FF01102A2BDB10F0070F08D010F809
:1000D000013B013A8B422DD010F0070F42B3F6D10D
:1000E000F0B441EA012141EA014122F007047FF026
:1000F00000070023F0E80256083C85EA010586EA7D
:10010000010685FA47F5A3FA87F586FA47F6A5FAB8
:1001100087F68EB9EED1F0BC01F0FF0102F00702C4
:1001200032B110F8013B013A83EA010313B1F8D16F
:100130000020704701387047002D06BF3546033850
:10014000073815F0010F07D1013015F4807F02BF89
:10015000013015F4C03F0130F0BC0138704700BFDA
:1001600081F0004102E000BF83F0004330B54FEA68
:1001700041044FEA430594EA050F08BF90EA020FD5
:100180001FBF54EA000C55EA020C7FEA645C7FEA68
:10019000655C00F0E2804FEA5454D4EB5555B8BF8B
:1001A0006D420CDD2C4480EA020281EA030382EAFC
:1001B000000083EA010180EA020281EA0303362D8E
:1001C00088BF30BD11F0004F4FEA01314FF4801C61
:1001D0004CEA113102D0404261EB410113F0004F73
:1001E0004FEA03334CEA133302D0524263EB43032A
:1001F00094EA050F00F0A780A4F10104D5F1200EC8
:100200000DDB02FA0EFC22FA05F2801841F1000122
:1002100003FA0EF2801843FA05F359410EE0A5F1F6
:1002200020050EF1200E012A03FA0EFC28BF4CF027
:10023000020C43FA05F3C01851EBE37101F00045DD
:1002400007D54FF0000EDCF1000C7EEB00006EEBEA
:100250000101B1F5801F1BD3B1F5001F0CD3490874
:100260005FEA30004FEA3C0C04F101044FEA4452CB
:1002700012F5800F80F09A80BCF1004F08BF5FEA52
:10028000500C50F1000041EB045141EA050130BD32
:100290005FEA4C0C404141EB010111F4801FA4F1D5
:1002A0000104E9D191F0000F04BF01460020B1FA2A
:1002B00081F308BF2033A3F10B03B3F120020CDA62
:1002C0000C3208DD02F1140CC2F10C0201FA0CF040
:1002D00021FA02F10CE002F11402D8BFC2F1200CA5
:1002E00001FA02F120FA0CFCDCBF41EA0C0190405B
:1002F000E41AA2BF01EB0451294330BD6FEA0404A4
:100300001F3C1CDA0C340EDC04F11404C4F120028E
:1003100020FA04F001FA02F340EA030021FA04F3A0
:1003200045EA030130BDC4F10C04C4F1200220FAF7
:1003300002F001FA04F340EA0300294630BD21FA35
:1003400004F0294630BD94F0000F83F4801306BFFB
:1003500081F480110134013D4EE77FEA645C18BFEF
:100360007FEA655C29D094EA050F08BF90EA020F86
:1003700005D054EA000C04BF1946104630BD91EA7E
:10038000030F1EBF0021002030BD5FEA545C05D181
:100390004000494128BF41F0004130BD14F58004C0
:1003A0003CBF01F5801130BD01F0004545F0FE4134
:1003B00041F470014FF0000030BD7FEA645C1ABF69
:1003C000194610467FEA655C1CBF0B46024650EAA0
:1003D000013406BF52EA033591EA030F41F40021CC
:1003E00030BD00BF90F0000F04BF0021704730B552
:1003F0004FF4806404F132044FF000054FF0000127
:1004000050E700BF90F0000F04BF0021704730B5E7
:100410004FF4806404F1320410F0004548BF4042BC
:100420004FF000013EE700BF42004FEAE2014FEA11
:1004300031014FEA02701FBF12F07F4393F07F4FEC
:1004400081F06051704732F07F4208BF704793F0EF
:100450007F4F04BF41F40021704730B54FF4607402
:1004600001F0004521F000411CE700BF50EA010205
:1004700008BF704730B54FF000050AE050EA0102AE
:1004800008BF704730B511F0004502D5404261EB1E
:1004900041014FF4806404F132045FEA915C3FF45F
:1004A000D8AE4FF003025FEADC0C18BF03325FEAFC
:1004B000DC0C18BF033202EBDC02C2F1200300FAAD
:1004C00003FC20FA02F001FA03FE40EA0E0021FAD2
:1004D00002F11444BDE600BF70B54FF0FF0C4CF4C0
:1004E000E06C1CEA11541DBF1CEA135594EA0C0F72
:1004F00095EA0C0F00F0DEF82C4481EA030621EAAD
:100500004C5123EA4C5350EA013518BF52EA0335E7
:1005100041F4801143F4801338D0A0FB02CE4FF099
:100520000005E1FB02E506F00042E0FB03E54FF0C9
:100530000006E1FB03569CF0000F18BF4EF0010EC1
:10054000A4F1FF04B6F5007F64F5407404D25FEABD
:100550004E0E6D4146EB060642EAC62141EA555170
:100560004FEAC52040EA5E504FEACE2EB4F1FD0CB2
:1005700088BFBCF5E06F1ED8BEF1004F08BF5FEA30
:10058000500E50F1000041EB045170BD06F00046E2
:1005900046EA010140EA020081EA0301B4EB5C048F
:1005A000C2BFD4EB0C0541EA045170BD41F4801187
:1005B0004FF0000E013C00F3AB8014F1360FDEBFAC
:1005C000002001F0004170BDC4F10004203C35DA88
:1005D0000C341BDC04F11404C4F1200500FA05F30B
:1005E00020FA04F001FA05F240EA020001F00042AC
:1005F00021F0004110EBD37021FA04F642EB060122
:100600005EEA430E08BF20EAD37070BDC4F10C044B
:10061000C4F1200500FA04F320FA05F001FA04F20F
:1006200040EA020001F0004110EBD37041F10001FB
:100630005EEA430E08BF20EAD37070BDC4F1200506
:1006400000FA05F24EEA020E20FA04F301FA05F26E
:1006500043EA020321FA04F001F0004121FA04F216
:1006600020EA020000EBD3705EEA430E08BF20EAE6
:10067000D37070BD94F0000F0FD101F00046400020
:1006800041EB010111F4801F08BF013CF7D041EAA2
:10069000060195F0000F18BF704703F000465200A6
:1006A00043EB030313F4801F08BF013DF7D043EA77
:1006B0000603704794EA0C0F0CEA135518BF95EA2D
:1006C0000C0F0CD050EA410618BF52EA4306D1D1B4
:1006D00081EA030101F000414FF0000070BD50EAD3
:1006E000410606BF1046194652EA430619D094EA5D
:1006F0000C0F02D150EA013613D195EA0C0F05D147
:1007000052EA03361CBF104619460AD181EA03019A
:1007100001F0004141F0FE4141F470014FF0000052
:1007200070BD41F0FE4141F4780170BD70B54FF0ED
:10073000FF0C4CF4E06C1CEA11541DBF1CEA13556D
:1007400094EA0C0F95EA0C0F00F0A7F8A4EB05044F
:1007500081EA030E52EA03354FEA013100F0888046
:100760004FEA03334FF0805545EA131343EA12630F
:100770004FEA022245EA111545EA10654FEA0026C4
:100780000EF000419D4208BF964244F1FD0404F57D
:10079000407402D25B084FEA3202B61A65EB0305D9
:1007A0005B084FEA32024FF480104FF4002CB6EB96
:1007B000020E75EB030E22BFB61A754640EA0C0016
:1007C0005B084FEA3202B6EB020E75EB030E22BF56
:1007D000B61A754640EA5C005B084FEA3202B6EB97
:1007E000020E75EB030E22BFB61A754640EA9C0056
:1007F0005B084FEA3202B6EB020E75EB030E22BF26
:10080000B61A754640EADC0055EA060E18D04FEAE3
:10081000051545EA16754FEA06164FEAC30343EA83
:1008200052734FEAC2025FEA1C1CC0D111F4801F50
:100830000BD141EA00014FF000004FF0004CB6E749
:1008400011F4801F04BF01430020B4F1FD0C88BFE8
:10085000BCF5E06F3FF6AFAEB5EB030C04BFB6EBF3
:10086000020C5FEA500C50F1000041EB045170BDE6
:100870000EF0004E4EEA113114EB5C04C2BFD4EB13
:100880000C0541EA045170BD41F480114FF0000E97
:10089000013C90E645EA060E8DE60CEA135594EA13
:1008A0000C0F08BF95EA0C0F3FF43BAF94EA0C0F16
:1008B0000AD150EA01347FF434AF95EA0C0F7FF48B
:1008C00025AF104619462CE795EA0C0F06D152EADF
:1008D00003353FF4FDAE1046194622E750EA4106C3
:1008E00018BF52EA43067FF4C5AE50EA41047FF4D4
:1008F0000DAF52EA43057FF4EBAE12E74FF0FF3C39
:1009000006E000BF4FF0010C02E000BF4FF0010C09
:100910004DF804CD4FEA410C7FEA6C5C4FEA430C82
:1009200018BF7FEA6C5C1BD001B050EA410C0CBFD1
:1009300052EA430C91EA030F02BF90EA020F002033
:10094000704710F1000F91EA030F58BF994208BF9A
:1009500090422CBFD8176FEAE37040F00100704757
:100960004FEA410C7FEA6C5C02D150EA013C07D1AE
:100970004FEA430C7FEA6C5CD6D152EA033CD3D0F9
:100980005DF8040B704700BF8446104662468C46F3
:100990001946634600E000BF01B5FFF7B7FF002826
:1009A00048BF10F1000F01BD4DF808EDFFF7F4FF4F
:1009B0000CBF012000205DF808FB00BF4DF808EDDA
:1009C000FFF7EAFF34BF012000205DF808FB00BFFD
:1009D0004DF808EDFFF7E0FF94BF012000205DF81F
:1009E00008FB00BF4DF808EDFFF7CEFF94BF0120D4
:1009F00000205DF808FB00BF4DF808EDFFF7C4FFCD
:100A000034BF012000205DF808FB00BF4FEA410C15
:100A10007FEA6C5C02D150EA013C0AD14FEA430CF8
:100A20007FEA6C5C02D152EA033C02D14FF0000035
:100A300070474FF0010070474FEA410212F5001273
:100A400015D211D56FF47873B3EB625212D94FEA15
:100A5000C12343F0004343EA505311F0004F23FAFF
:100A600002F018BF404270474FF00000704750EA54
:100A7000013005D111F0004008BF6FF00040704711
:100A80004FF00000704700BF4A0011D212F500126B
:100A900011D20DD56FF47873B3EB62520ED44FEAD6
:100AA000C12343F0004343EA505323FA02F0704756
:100AB0004FF00000704750EA013002D14FF0FF3094
:100AC00070474FF0000070474FEA4102B2F1E04337
:100AD00024BFB3F5001CDCF1FE5C0DD901F0004C25
:100AE0004FEAC0024CEA5070B2F1004F40EB830075
:100AF00008BF20F00100704711F0804F21D113F1A1
:100B00003872BCBF01F00040704741F480114FEAD9
:100B10005252C2F11802C2F1200C10FA0CF320FA62
:100B200002F018BF40F001004FEAC1234FEAD3237F
:100B300003FA0CFC40EA0C0023FA02F34FEA4303E9
:100B4000CCE77FEA625307D150EA01331EBF4FF072
:100B5000FE4040F44000704701F0004040F0FE408D
:100B600040F40000704700BF80F0004002E000BF8A
:100B700081F0004142001FBF5FEA410392EA030F88
:100B80007FEA226C7FEA236C6AD04FEA1262D2EBD2
:100B90001363C1BFD218414048404140B8BF5B42D7
:100BA000192B88BF704710F0004F40F4000020F070
:100BB0007F4018BF404211F0004F41F4000121F086
:100BC0007F4118BF494292EA030F3FD0A2F10102D0
:100BD00041FA03FC10EB0C00C3F1200301FA03F10E
:100BE00000F0004302D5494260EB4000B0F5000F31
:100BF00013D3B0F1807F06D340084FEA310102F1F0
:100C00000102FE2A51D2B1F1004F40EBC25008BFA1
:100C100020F0010040EA03007047490040EB00006B
:100C200010F4000FA2F10102EDD1B0FA80FCACF19A
:100C3000080CB2EB0C0200FA0CF0AABF00EBC25099
:100C400052421843BCBFD0401843704792F0000F87
:100C500081F4000106BF80F400000132013BB5E7DA
:100C60004FEA41037FEA226C18BF7FEA236C21D050
:100C700092EA030F04D092F0000F08BF08467047B5
:100C800090EA010F1CBF0020704712F07F4F04D183
:100C9000400028BF40F00040704712F100723CBF96
:100CA00000F50000704700F0004343F0FE4040F4C0
:100CB000000070477FEA226216BF08467FEA23637E
:100CC0000146420206BF5FEA412390EA010F40F469
:100CD000800070474FF0000304E000BF10F00043B5
:100CE00048BF40425FEA000C08BF704743F096439C
:100CF00001464FF000001CE050EA010208BF7047B7
:100D00004FF000030AE000BF50EA010208BF70473D
:100D100011F0004302D5404261EB41015FEA010C52
:100D200002BF84460146002043F0B64308BFA3F14A
:100D30008053A3F50003BCFA8CF2083AA3EBC2532C
:100D400010DB01FA02FC634400FA02FCC2F120024B
:100D5000BCF1004F20FA02F243EB020008BF20F082
:100D60000100704702F1200201FA02FCC2F12002E8
:100D700050EA4C0021FA02F243EB020008BF20EADD
:100D8000DC7070474FF0FF0C1CEAD0521EBF1CEA0B
:100D9000D15392EA0C0F93EA0C0F6FD01A4480EAF9
:100DA000010C400218BF5FEA41211ED04FF00063E2
:100DB00043EA501043EA5111A0FB01310CF000400E
:100DC000B1F5000F3EBF490041EAD3715B0040EA34
:100DD000010062F17F02FD2A1DD8B3F1004F40EB04
:100DE000C25008BF20F00100704790F0000F0CF0D7
:100DF000004C08BF49024CEA502040EA51207F3A9B
:100E0000C2BFD2F1FF0340EAC250704740F4000075
:100E10004FF00003013A5DDC12F1190FDCBF00F066
:100E200000407047C2F10002410021FA02F1C2F114
:100E3000200200FA02FC5FEA310040F1000053EAB0
:100E40004C0308BF20EADC70704792F0000F00F0FE
:100E5000004C02BF400010F4000F013AF9D040EA04
:100E60000C0093F0000F01F0004C02BF490011F498
:100E7000000F013BF9D041EA0C018FE70CEAD15396
:100E800092EA0C0F18BF93EA0C0F0AD030F0004C16
:100E900018BF31F0004CD8D180EA010000F00040CA
:100EA000704790F0000F17BF90F0004F084691F088
:100EB000000F91F0004F14D092EA0C0F01D14202C2
:100EC0000FD193EA0C0F03D14B0218BF084608D18B
:100ED00080EA010000F0004040F0FE4040F40000D5
:100EE000704740F0FE4040F4400070474FF0FF0C68
:100EF0001CEAD0521EBF1CEAD15392EA0C0F93EAAF
:100F00000C0F69D0A2EB030280EA010C49024FEA00
:100F1000402037D04FF0805343EA111143EA1013B9
:100F20000CF000408B4238BF5B0042F17D024FF471
:100F3000000C8B4224BF5B1A40EA0C00B3EB510F4C
:100F400024BFA3EB510340EA5C00B3EB910F24BF35
:100F5000A3EB910340EA9C00B3EBD10F24BFA3EBBA
:100F6000D10340EADC001B0118BF5FEA1C1CE0D182
:100F7000FD2A3FF650AF8B4240EBC25008BF20F035
:100F8000010070470CF0004C4CEA50207F32C2BF89
:100F9000D2F1FF0340EAC250704740F400004FF026
:100FA0000003013A37E792F0000F00F0004C02BF57
:100FB000400010F4000F013AF9D040EA0C0093F021
:100FC000000F01F0004C02BF490011F4000F013B7B
:100FD000F9D041EA0C0195E70CEAD15392EA0C0FE3
:100FE00008D142027FF47DAF93EA0C0F7FF470AF1B
:100FF000084676E793EA0C0F04D14B023FF44CAF5E
:1010000008466EE730F0004C18BF31F0004CCAD1F2
:1010100030F000427FF45CAF31F000437FF43CAF2E
:101020005FE700BF53B94AB9002908BF00281CBFB9
:101030004FF0FF314FF0FF3000F094B9ADF1080CE4
:101040006DE904CE00F028F8DDF804E0DDE90223C4
:1010500004B07047D0B500220D4B06460F46FFF78F
:101060003BFAFFF711FD0446FFF7BCF90022094BDC
:10107000FFF732FA02460B4630463946FFF774F85E
:10108000FFF702FD0022234610431946D0BD00BFE2
:101090000000F03D0000F0412DE9F047089E0446B5
:1010A0008846002B4BD18A42154667D9B2FA82F2A4
:1010B0004AB1C2F1200701FA02F320FA07F795407E
:1010C00047EA030894404FEA154E230CB8FBFEF79D
:1010D0001FFA85FC0EFB178843EA084307FB0CF157
:1010E000994209D9EB1807F1FF3080F01B81994232
:1010F00040F21881023F2B445B1AA4B2B3FBFEF00E
:101100000EFB103344EA034400FB0CFCA44509D950
:101110002C1900F1FF3380F00781A44540F20481CF
:1011200002382C4440EA0740A4EB0C0400271EB10F
:10113000D4400023C6E900433946BDE8F0878B421E
:1011400009D9002E00F0EB800027C6E900013846DF
:101150003946BDE8F087B3FA83F7002F47D18B42B9
:1011600002D3824200F2FA80841A61EB0303012069
:101170009846002EE0D0C6E90048DDE702B9FFDE60
:10118000B2FA82F2002A40F08F80491B4FEA154ED6
:101190001FFA85F80127B1FBFEFC230C0EFB1C1186
:1011A00043EA014308FB0CF1994207D9EB180CF113
:1011B000FF3002D2994200F2CD808446591AA3B280
:1011C000B1FBFEF00EFB101443EA044408FB00F8E8
:1011D000A04507D92C1900F1FF3302D2A04500F237
:1011E000B6801846A4EB080440EA0C409FE7C7F11C
:1011F000200CBB4022FA0CFE4EEA030E01FA07F463
:1012000020FA0CF521FA0CF34FEA1E482543B3FBF4
:10121000F8F92C0C08FB19331FFA8EFA44EA034341
:1012200009FB0AF49C4202FA07F200FA07F10BD913
:101230001EEB030309F1FF3080F087809C4240F2EF
:101240008480A9F1020973441B1BADB2B3FBF8F013
:1012500008FB103345EA034400FB0AFAA24508D90B
:101260001EEB040400F1FF336BD2A24569D90238AA
:10127000744440EA0940A0FB0289A4EB0A044C45EF
:10128000C2464B4654D351D0002E69D0B1EB0A056B
:1012900064EB030404FA0CFCFD40FC404CEA050539
:1012A000C6E90054002747E7C2F1200320FA03F7FC
:1012B000954001FA02F021FA03F34FEA154E384344
:1012C000010CB3FBFEF71FFA85F80EFB173341EA5A
:1012D000034107FB08F38B4204FA02F407D96918AB
:1012E00007F1FF3C2FD28B422DD9023F2944CB1A64
:1012F00081B2B3FBFEF00EFB103341EA034100FB69
:1013000008F38B4207D9691800F1FF3C17D28B42D2
:1013100015D902382944C91A40EA07473BE737463E
:10132000304609E70746E7E61846FBE64145ABD2FB
:10133000B8EB020A69EB0E0201381346A4E76046D7
:10134000E9E7184695E76746D1E781467CE702382A
:101350002C4447E7ACF1020C2B442FE7384608E752
:101360003746E9E6704700BF70B50646FF2011F02A
:101370005FF8C0B1134B044603CB1B782060237287
:1013800061603046FEF790FEF42805460CD92046F1
:10139000FEF78AFE0146204601F068FE2046BDE8C1
:1013A000704011F0DDB870BD421C3146A01D12F036
:1013B000AEFE0635044B621919889B786153937011
:1013C000E5E700BF10510308346403082DE9F04F2E
:1013D000047889B0064684B1054612F059FE2044CF
:1013E0002346427802F00302022A08BFA4F1200338
:1013F0002B7015F8014F002CEFD13046434913F004
:10140000B3FD0746002855D0414CE36801934FF0E7
:1014100000038DF80C303B787B2B4ED003AD02AB34
:101420002A463C49384612F039FF019B002B3AD03E
:101430004FF00009C8464FF0000A524602E0C96862
:10144000524651B34FEA021B284654F80B10FEF7E0
:1014500021FE0AF101035FFA83FA04EB0B0604EBA9
:101460000A110028EBD12C49B38889888B4201D01E
:10147000002B41D104F010F904EB0B0201469568F2
:10148000029A4B463846A8470546002838D0FEF752
:101490000BFE0146284601F0E9FDB8F1000F02D02D
:1014A000404603F05BF81949002013F05DFD074644
:1014B0000028ACD109B0BDE8F08F384603F0D8FA67
:1014C0008046A0B1154903F0D7FA0569E5B1144982
:1014D000404603F0D1FA814620B1284603AA1149BB
:1014E00012F0DCFE019B002BDAD003ADA3E7019BD9
:1014F000002BD8D003AD9BE70B48FFF735FFCCE7B7
:101500000A48FFF731FFC8E7A946EBE7C0650308C3
:101510000C6B030838510308FCA001201C51030880
:10152000285103083451030840510308545103085B
:10153000A1F8B8210048704760510308A1F8BA210A
:101540000048704760510308A1F8A921004870477E
:1015500060510308A1F8A7210048704760510308B3
:10156000A1F8AB210048704760510308A1F8AD21F4
:101570000048704760510308A1F8AF210048704748
:1015800060510308A1F8D121004870476051030859
:10159000A1F8CF210048704760510308A1F8D3217A
:1015A0000048704760510308A1F8BD21004870470A
:1015B00060510308A1F8BF2100487047605103083B
:1015C00081F8C5210048704760510308A1F8C12186
:1015D000004870476051030881F8C32100487047F4
:1015E0006051030881F8C821004870476051030822
:1015F00081F8C421004870476051030881F8BC217C
:10160000004870476051030881F8C62100487047C0
:1016100060510308C1F8C9210048704760510308B0
:10162000A1F8D5210048704760510308A1F8D721DF
:101630000048704760510308A1F8D921004870475D
:101640006051030808B5044A41F61C031021D05824
:101650000FF012FB014808BDFCA0012060510308F7
:1016600008B5044A41F61C034021D0580FF004FB92
:10167000014808BDFCA001206051030808B5054AD7
:1016800041F61C034FF48061D0580FF0F5FA024880
:1016900008BD00BFFCA001206051030808B5054A41
:1016A00041F61C034FF40071D0580FF0E5FA0248E0
:1016B00008BD00BFFCA001206051030808B5044A22
:1016C00041F61C032021D0580FF0D6FA014808BD7E
:1016D000FCA001206051030830B589B004AA03AB17
:1016E000CDE90032002402AB05AA1A490494CDE9E1
:1016F000024412F0D3FD022826D0032803461ED050
:10170000012816D0DDE90331029C134A41F69015F9
:1017100041F61C00535141F6941541F68C1351517A
:101720001058D4504FF480710FF0A6FA0B4809B04E
:1017300030BD0B4C0390142102940491E5E7142171
:10174000DDE902430491E0E732231421CDE90331BE
:10175000029CDAE7DC680308FCA001206051030862
:1017600040420F0000B585B004AB002243F8102DB5
:10177000094901AA12F092FD084B009941F688121E
:1017800041F61C00995018584FF400610FF074FA9C
:10179000034805B05DF804FB38510308FCA00120A4
:1017A0006051030808B501F041FC0221064801F030
:1017B0005DFC064A41F61C034FF40001D0580FF0BF
:1017C0005BFA034808BD00BF34640308FCA0012095
:1017D0006051030808B510F01DFC03F06DFF10F018
:1017E0003BFC014808BD00BF605103082DE9F043F0
:1017F000FF2083B010F01CFE002843D0074603F002
:10180000B5FD064603F0CCFD0546D0E9000150EADF
:1018100001033ED0002E3CD0013EB6B2013605EBAE
:10182000C6064FF001094FF002080AE0837CF5E993
:10183000020143F00103A37450EA010329D0B54229
:1018400027D0CDE90089012382B203F001FD0446CF
:101850000028EBD1144D154E0FCD3860796003CDC3
:10186000BA6095F800C0B278358838617961FB605C
:1018700087F818C0A7F81950FA761B21384601F0EE
:10188000F5FB07E00A4C03F0B9FD204603B0BDE8C4
:10189000F083074C384610F063FE03F0AFFD20469E
:1018A00003B0BDE8F08300BF446303083464030859
:1018B0002C63030830B5154C1549D4F80002154BBC
:1018C000154A85B004EB8010019143F23171029307
:1018D000ADF80C1001AB402100258DF80E5012F030
:1018E00089FCD4F8005204EB85152846FEF7DCFB92
:1018F0000146284601F0BAFBD4F80032074801330C
:1019000003F00703C4F8003205B030BDBC9D0120D0
:10191000362E302E323230324465030860510308CF
:1019200070B5214CD4F8000282B004EB801515F09C
:101930008BFF1E4A03464021284612F05BFCD4F878
:10194000005204EB85152846FEF7AEFB01462846FB
:1019500001F08CFBD4F80052013505F00705C4F8FE
:10196000005215F05FFF064615F04AFF3346104A55
:101970000090402104EB851012F03CFCD4F800529A
:1019800004EB85152846FEF78FFB0146284601F03B
:101990006DFBD4F800320748013303F00703C4F8A5
:1019A000003202B070BD00BFBC9D012094640308EA
:1019B000B46403086051030810B5164C4FF4FA7074
:1019C0000DF050FA20464FF480410CF03BFD4FF4EF
:1019D000FA700DF047FA20464FF480410CF032FDCA
:1019E000204601210CF02EFD4FF4FA700DF03AFA6A
:1019F000204601210CF026FD204680210CF022FD1E
:101A00004FF4FA700DF02EFA204680210CF01AFDEA
:101A1000014810BD0004024060510308F0B5304D8C
:101A2000304E314F83B001A802F052F90FCDD6F8F5
:101A3000004206EB84140FC40FCD0FC495E80700D5
:101A400003C42280D6F8004206EB84142046FEF739
:101A50002BFB0146204601F009FBD6F8003201338A
:101A600003F00703C6F8003203E0019802F036F9EC
:101A700048BB4FF4005138460CF0DAFC43F698218D
:101A80000028F2D1194DD6F800420FCD06EB841490
:101A90000FC495E8030044F8040B2180D6F80042F7
:101AA00006EB84142046FEF7FFFA0146204601F0BB
:101AB000DDFAD6F800320E48013303F00703C6F80A
:101AC000003203B0F0BD0B4DD6F800420FCD06EB4F
:101AD00084140FC495E8070003C42280DEE700BF2A
:101AE00028690308BC9D01200008024054690308CE
:101AF000605103086C6903082DE9F0411E4F1F4D2A
:101B0000DFF884800FCF86B001AE0FC60FCDD8F8B6
:101B100000423F6826F8027B08EB84140FC40FCD07
:101B20000FC495E8030044F8040B3F0C2170377094
:101B3000D8F80042124D08EB84142046FEF7B4FAA0
:101B40000146204601F092FAD8F80032013303F042
:101B50000703C8F800320024012201A921444FF6EE
:101B6000FF73144428460CF0FBFE122CF4D10548F8
:101B700006B0BDE8F08100BF14690308EC680308F3
:101B8000F49B012060510308BC9D01202DE9F04128
:101B900003F006FC054603F0E9FB0446FF2010F0C5
:101BA00047FC00285CD0064610F034FACCB304EBB6
:101BB0004402C2EBC2020A322B492C4FDFF8BC8030
:101BC000304612F04BFB3046FEF76EFA284B844647
:101BD00007CB06EB0C0346F80C0059609A600CF139
:101BE0000B013046083D01F041FA09E03046FEF7AE
:101BF0005BFA013C0146A4B2304601F037FA24B347
:101C000055F8083F39466A68304612F027FB012C28
:101C1000ECD93046FEF748FA0346D8F80000F050F9
:101C2000E4E70D221049304612F018FB3046FEF76B
:101C30003BFA0F4B044607CB3319305159609A6079
:101C400004F10B01304601F011FA0421094801F0BA
:101C50000DFA10F001FA03F0D1FB304610F080FCD1
:101C60000548BDE8F08100BF0C6503082065030846
:101C7000146503083065030860510308E86703082A
:101C800030B50C4687B06568A36822880095258A20
:101C90000495E5890395A58964880349CDE9014543
:101CA00012F0DCFA07B030BDB86A03082DE9F04144
:101CB000044690B0FF2010F0BBFB0546002877D00B
:101CC0000AA909AA08AB0CAF0BAECDE90121204649
:101CD0000093002407ABCDE903670DAA3549CDE990
:101CE0000744CDE90944CDE90B4412F0D7FA0A9B29
:101CF0003BB90024284610F033FC204610B0BDE864
:101D0000F0810B9B002BF4D00728F2D1DDE9078688
:101D1000012344EA0600BDF824204146CDE9003302
:101D200003F096FA06460028E3D0837CBDF82C1019
:101D3000BDF82800BDF83020B08143F00103B37432
:101D4000F18132821C491D4C45F65A22284612F078
:101D500085FA2846FEF7A8F9194B074607CBB3F8D2
:101D600000C0E851EB1907F10D00A3F80CC0596051
:101D70009A6031462844FFF783FF2846FEF794F91E
:101D8000104B11491B882B52421FA81C12F066FAF7
:101D90007B23AB712846FEF787F90C4B2A1819886C
:101DA0009B782952811C9370284601F05FF9A1E7C6
:101DB0000446A2E7606303080C650308605103084A
:101DC0007C630308E4660308647103083464030851
:101DD0002DE9F84FFF200D4610F02AFB044600289D
:101DE00000F0398110F016F945F65A229B499C4EB5
:101DF000204612F033FA2046FEF756F907460FCE7A
:101E000004EB070C96F804E0E05130688CF814E01D
:101E1000CCF80410CCF80C30CCF81000CCF808202A
:101E20001437B5F8B8218F498F4EE01912F016FA21
:101E30002046FEF739F9B5F8BA218C49204412F052
:101E40000DFA2046FEF730F9B5F8A921884920445B
:101E500012F004FA2046FEF727F9B5F8A7218549C4
:101E6000204412F0FBF92046FEF71EF9B5F8AB212D
:101E70008149204412F0F2F92046FEF715F9B5F831
:101E8000AD217E49204412F0E9F92046FEF70CF915
:101E9000B5F8AF217A49204412F0E0F92046FEF768
:101EA00003F9D5F8C9217749204412F0D7F9204623
:101EB000FEF7FAF804F1020A821F73494FF07B091A
:101EC000504612F0CBF984F806902046FEF7ECF865
:101ED0006E4B2218B3F800809F7824F80080811C94
:101EE0009770204601F0C2F845F65A225B49204619
:101EF00012F0B4F92046FEF7D7F884460FCE04EB73
:101F00000C0644F80C000CF10F00F3607160B26035
:101F100095F8BC215E495F4E204412F09FF920469F
:101F2000FEF7C2F895F8C6215B49204412F096F9F5
:101F30002046FEF7B9F85449821F504612F08EF938
:101F400084F806902046FEF7AFF8231824F80080A6
:101F5000811C9F70204601F089F845F65A223F49BE
:101F6000204612F07BF92046FEF79EF884460FCEFD
:101F700004EB0C0E44F80C00B6F800B0B678CEF8BE
:101F80000410CEF80C30CEF808200CF11200AEF898
:101F900010B08EF81260B5F8D5214049204412F0F7
:101FA0005DF92046FEF780F8B5F8D7213C4920447A
:101FB00012F054F92046FEF777F8B5F8D9213949DF
:101FC000204412F04BF92046FEF76EF8B5F8D12107
:101FD0003549204412F042F92046FEF765F8B5F87D
:101FE000CF213249204412F039F92046FEF75CF83F
:101FF000B5F8D3212E49204412F030F92046FEF7DF
:1020000053F8B5F9BD212B49204412F027F9204699
:10201000FEF74AF8B5F9BF212749204412F01EF90E
:102020002046FEF741F81849821F504612F016F973
:1020300084F806902046FEF737F82318811C24F810
:1020400000809F70204601F011F8204610F088FAB9
:1020500010F002F81948BDE8F88F00BF0C650308BE
:10206000846503089C65030824660308B0650308BB
:10207000C4650308D4650308E4650308F465030830
:1020800004660308146603086471030834640308D3
:102090003466030854660308446603086866030848
:1020A000786603088866030898660308A86603082C
:1020B000B8660308C8660308D866030860510308B9
:1020C0002DE9F041054686B0FF200F4610F0B0F92B
:1020D00000285BD0044605AA04ABCDE900322846AF
:1020E00003AB2246334912F0D9F8042854D0324BBE
:1020F00001280CBF98464FF0000845F65A222F4998
:102100002F4D204612F0AAF82046FDF7CDFF0646D7
:102110000FCDA519A051EB606960AA6006F10F0010
:10212000D7F8B2212749204412F098F82046FDF74D
:10213000BBFF97F8B1212449204412F08FF82046C4
:10214000FDF7B2FFB7F8B6212049204412F086F817
:102150002046FDF7A9FF1E49821FA01C12F07EF841
:102160007B23A3712046FDF79FFF1A4B2218198885
:102170009B782152811C9370204600F077FF204607
:1021800010F0EEF9404606B0BDE8F081DFF8288097
:10219000404606B0BDE8F081DDE90312BDF8143019
:1021A000C7F8B21187F8B121A7F8B631DFF8088077
:1021B000A3E700BF98670308605103080C65030894
:1021C000B4670308C4670308D8670308EC6703080B
:1021D00064710308346403082DE9F041064692B0A7
:1021E000FF200D4610F024F9002800F09F800DA973
:1021F0000EAA0FAB04460691304609A90592049336
:102200000AAA0BAB11AF10AECDE90032CDE9021630
:102210000CAB07972246484912F040F8A0F1090399
:10222000012B65D9454B01280CBF98464FF000089B
:1022300045F65A224249434E204612F00FF82046F6
:10224000FDF732FF07460FCE04EB070CE051308854
:10225000ACF81000CCF80410CCF80820CCF80C3006
:10226000D5F8E701D5F8EF31D5F8F321D5F8EB1122
:10227000019007F1110000912044334911F0EEFF65
:102280002046FDF711FFD5F8FB11D5F8F761D5F819
:10229000FF31D5F80322009101962C49204411F01A
:1022A000DDFF2046FDF700FFD5F80722284920442E
:1022B00011F0D4FF2046FDF7F7FE2649821FA01C2F
:1022C00011F0CCFF7B23A3712046FDF7EDFE224BDE
:1022D000221819889B782152811C9370204600F0A7
:1022E000C5FE204610F03CF9404612B0BDE8F08132
:1022F000DDE90D01119B0F9AC5F80732109BC5F857
:10230000F701C5F8FB1109980A99C5F8FF21C5F82E
:1023100003320B9A0C9BC5F8E701C5F8EB11C5F821
:10232000EF21C5F8F331DFF8148081E7DFF80C8086
:10233000404612B0BDE8F0813C68030860510308D4
:102340000C6503086C68030880680308A468030828
:10235000C868030864710308346403082DE9F04772
:10236000FF2010F065F8002800F0BA8004460FF056
:1023700051FE45F65A225C495C4E5D4D5D4F20464C
:1023800011F06CFF2046FDF78FFE84460FCE04EB64
:102390000C0E44F80C0030788EF8100041F69C16B4
:1023A000CEF80410CEF80C30CEF808200CF1100056
:1023B000AA5B5149204411F051FF2046FDF774FEFD
:1023C00041F69E134D49EA5A204411F047FF20463A
:1023D000FDF76AFE05F5CD5349491A78204411F0FE
:1023E0003DFF2046FDF760FE41F6981A454935F855
:1023F0000A20204411F032FF2046FDF755FE41F639
:102400009A134149EA5A204411F028FF2046FDF76B
:102410004BFE41F6A2133D49EA5A204411F01EFF3B
:102420002046FDF741FE41F6A4133949EA5A2044FB
:1024300011F014FF2046FDF737FE41F6A61335498B
:10244000EA5C204411F00AFF2046FDF72DFE41F61C
:10245000B019314955F80920204411F0FFFE2046FB
:10246000FDF722FE41F6B4182C4955F80820204407
:1024700011F0F4FE2046FDF717FE41F6B816284984
:10248000AA59204411F0EAFE2046FDF70DFE254929
:10249000821FA01C11F0E2FE7B23A3712046FDF7F2
:1024A00003FE214B9A78198821522318811C9A70B7
:1024B000204600F0DBFD204610F052F8002345F8DE
:1024C0000A3045F8093045F80830AB510120C7E91A
:1024D0000133C7E903337B6115F0EAFB0FF0BCFD64
:1024E0001248BDE8F08700BF0C650308E8660308E2
:1024F000FCA0012094BA0120FC6603080C670308C5
:102500001C6703082C67030838670308446703083F
:1025100054670308606703086C6703087C67030857
:102520008C6703086471030834640308605103086E
:102530002DE9F041FF200FF07BFF00284ED005462B
:102540000FF068FD02F030FE044602F033FE06464E
:10255000002846D10C222949DFF8B080284611F026
:102560007DFE2846FDF7A0FD254B074603CBEA1963
:10257000E85118889B785160108107F10A01937225
:10258000284600F073FD04F5BE7702E01334A7423D
:102590001BD02388002BF9D028462146FFF770FB7B
:1025A000012E284605DDFDF77FFD0346D8F8000023
:1025B000E8502846FDF778FD13340146284600F020
:1025C00055FDA74206F1FF36E3D104210D4800F086
:1025D0004DFD0FF041FD28460FF0C2FF0A48BDE84F
:1025E000F08121462846FFF74BFB2846FDF75CFDAE
:1025F000C21C06FB02F20932ADE700BF0C650308FE
:10260000386503083065030860510308E86703086C
:10261000F0B5054689B0FF200FF00AFF04460028F8
:1026200041D004AB28460093002503AB204905AAFE
:10263000CDE9035511F032FEDDE9037345EA0300ED
:10264000002F08BFB0F5803F39462ED280B202F08D
:1026500051FE45F65A221749204611F0FFFD20464B
:10266000FDF722FDDDE903231349204411F0F6FDB7
:102670002046FDF719FD1149821FA01C11F0EEFD47
:102680007B23A3712046FDF70FFD0D4B22181988FF
:102690009B782152811C9370204600F0E7FC204675
:1026A0000FF05EFF074809B0F0BD02F03FFED0E733
:1026B000E06403080C650308F06403086471030810
:1026C0003464030860510308F0B58BB0644B65496E
:1026D000079343F231720023FF200891ADF82420C4
:1026E0008DF826300FF0A4FE0446002800F09880F4
:1026F00045F65A225C495D4F11F0B0FD2046FDF7CA
:10270000D3FC5B4BDFF8C4C1064607CBA319A0512D
:1027100059609A600FCF06F10B051D3660512544B4
:10272000A0196960BCF80410B7F800E0BE78AA6090
:1027300089B20129EB60A5F810E0AE7472D0BCF844
:1027400004309BB2022B1DD0BCF804309BB2032B8B
:1027500072D0BCF804309BB2062B68D0BCF80430B1
:102760009BB2072B6DD0BCF804309BB2052B6DD00B
:10277000BCF804309BB2082B6DD03E4A3E4D3F4E14
:102780003F4F03E03F4A3C4D3C4E3D4F3E4911F028
:1027900065FD2046FDF788FC07AA3C49204411F05E
:1027A0005DFD2046FDF780FC394B3A4A3A4920440A
:1027B00011F054FD2046FDF777FC384A384B394973
:1027C0000497CDE90032CDE90256374B374A204411
:1027D00011F044FD2046FDF767FC251815F008F8B8
:1027E00033490246284611F039FD2046FDF75CFCCE
:1027F0003049821FA01C11F031FD7B23A3712046BC
:10280000FDF752FC2C4B221819889B782152811C11
:102810009370204600F02AFC20460FF0A1FE2748C6
:102820000BB0F0BD264A144D144E154FAEE7124DB5
:10283000124E134F2A46A9E7224A0F4D0F4E104F52
:10284000A4E70E4E0C4D0E4F32469FE71E4A0A4D2E
:102850000A4E0B4F9AE70A4F074D084E3A4695E746
:10286000362E302E323230320C650308E463030812
:10287000D8630308C4630308AC630308B4630308A4
:10288000CC6303088C63030830640308F86303080F
:102890000C640308186403082464030874640308C0
:1028A0007C64030844640308386403083C64030838
:1028B00084640308647103083464030860510308E6
:1028C00098630308A0630308BC630308FCA001200D
:1028D00070B5FF2082B00E460FF0AAFD002852D03E
:1028E000304DAB889BB2012B04461FD0AB889BB206
:1028F000022B4DD0AB889BB2032B4BD0AB889BB245
:10290000062B43D0AB889BB2072B47D0AB889BB23A
:10291000052B45D0AB889BB2082B3DD0AB88224A13
:1029200022499BB2042B18BF0A4600E0204AD5E991
:102930000231204600911F4911F090FC2046FDF71E
:10294000B3FB0146204600F091FB204600240FF027
:1029500007FE2346224631462046C5E90244FFF7DA
:10296000B3FE2346224631462046FFF731FA23467E
:10297000224621462046FFF709F9234622462146F2
:102980002046FFF7D5FD0C4802B070BD0B4ACEE7DC
:102990000B4ACCE70B4ACAE70B4AC8E70B4AC6E723
:1029A0000B4AC4E7FCA001207C6403080468030808
:1029B000986303080C68030860510308AC630308BC
:1029C0008C630308A0630308CC630308B4630308A3
:1029D000BC63030830B5054683B0FF200FF028FD27
:1029E000002851D0044601AB284622462C4911F05C
:1029F00055FC05460FF00EFB022D48D0294D2B68E3
:102A000093F80B0200F03F0015F080F915F090F9F3
:102A10002A6892F80B3223F03F031843019082F8A2
:102A20000B020FF019FB45F65A221F491F4D204695
:102A300011F014FC2046FDF737FB034607CDE518DF
:102A4000E05003F10B006960AA601949019A204423
:102A500011F004FC2046FDF727FB1649821FA01C3D
:102A600011F0FCFB7B23A3712046FDF71DFB124BED
:102A7000221819889B782152811C9370204600F0FF
:102A8000F5FA20460FF06CFD0C4803B030BD0198FC
:102A900000F07F0015F03AF9024B01981A68BEE782
:102AA000886A0308FCA001200C650308946A0308E7
:102AB000A06A0308647103083464030860510308C2
:102AC0002DE9F04106469AB0FF200D460FF0B0FC0C
:102AD000002800F0D98018A917AA16AB04460A915D
:102AE000304614A915AE0992089313AA12AB0796A3
:102AF0000691059210A90FAA049319AF0EAB11AE5F
:102B0000CDE90032CDE902160B970DAB224676498E
:102B100011F0C4FB0E2800F0BD80744B01280CBFDF
:102B200098464FF0000845F65A227149714F2046E9
:102B300011F094FB2046FDF7B7FA06460FCF04EBE1
:102B4000060CA0513878CCF80410CCF80820CCF84A
:102B50000C308CF81000287802F00CFD103626445A
:102B600002466549304611F079FB2046FDF79CFA94
:102B70002618687802F056FD60490246304611F08A
:102B80006DFB2046FDF790FA2618A87802F01AFD92
:102B90005B490246304611F061FB2046FDF784FA9E
:102BA000EA785849204411F059FB2046FDF77CFA99
:102BB0002A795549204411F051FB2046FDF774FA5B
:102BC0006A795249204411F049FB2046FDF76CFA1E
:102BD0002618A87902F0DEFC4D490246304611F075
:102BE0003DFB2046FDF760FAEA794A49204411F09E
:102BF00035FB2046FDF758FA2A7A4749204411F060
:102C00002DFB2046FDF750FAB5F809204349204432
:102C100011F024FB2046FDF747FAEA7A40492044A8
:102C200011F01CFB2046FDF73FFA2618287B02F026
:102C300029FD3C490246304611F010FB2046FDF7C5
:102C400033FA6A7B3849204411F008FB2046FDF72F
:102C50002BFA3649821FA01C11F000FB7B23A371C5
:102C60002046FDF721FA324B221819889B78215211
:102C7000811C9370204600F0F9F920460FF070FC9B
:102C800040461AB0BDE8F081DFF8608040461AB0D7
:102C9000BDE8F0810D98DFF8548002F063FC2870E5
:102CA0000E9802F099FC68700F9802F07FFCA870F3
:102CB000139802F061FCA871189802F0BFFCDDE9DE
:102CC00010231299EA702B71149A159B6971EA719D
:102CD000BDF85810179A2B72199B2873A5F8091084
:102CE000EA726B731FE700BF88690308605103082D
:102CF0000C650308B4690308C8690308D8690308A8
:102D0000E8690308F4690308046A0308146A0308FD
:102D1000246A0308386A0308486A030844670308FA
:102D2000586A0308686A0308786A0308647103082C
:102D30003464030810B50C460FF06CF9194A9388F7
:102D40009BB2032B24D0042B1FD0022B136811D06D
:102D5000002283F8DB2183F8DC2183F8DD2183F86E
:102D6000DE21204602F0B4FC04460FF075F994B958
:102D70000D4810BD1021002283F8DB1183F8DC21FF
:102D800083F8DD2183F8DE21EBE713682021F2E7E9
:102D900013684021EFE72146002001F0B9F8002038
:102DA00010BD00BFFCA0012060510308034A41F69A
:102DB0001C034FF40001D0580DF05EBFFCA00120B1
:102DC0002DE9F84FFF200FF033FB054600286DD0AA
:102DD0000FF020F9364C374EDFF8E8A0DFF8E8B006
:102DE000DFF8E890DFF8E88000274FF480310BE04F
:102DF00078B1BBF8040080B201280AD01034002E4C
:102E000040D0B2466168E669BBF804C088B260454C
:102E1000EED101EA0801B1F5803F14D0B1F5003FD1
:102E2000ECD12268002AE9D0E81923490A3711F0C9
:102E300015FA272FE2DDB9F80010E953EA1999F8DD
:102E40000210917013E06FB1E919B9F80000E8536E
:102E500099F8020088702846FDF726F901462846B1
:102E600000F004F952461549284611F0F7F92846B2
:102E7000FDF71AF90146284600F0F8F8002710344B
:102E8000002EBED1EB1999F80220B9F80010E953D1
:102E900028469A70FDF708F90146284600F0E6F842
:102EA0000FF0DAF828460FF05BFB0548BDE8F88F15
:102EB0000C6B0308B85B03087C6503086C650308AA
:102EC000605103087C520308FCA00120346403080D
:102ED0000000FFFF2DE9F0418046FF200FF0A8FA27
:102EE0000646002851D00FF095F82A4C2A4D2B4F5A
:102EF0004FF4803309E06BB1BB889BB2012B09D042
:102F00001034E568002D42D06368BA889BB29342C2
:102F10004146F0D12068FDF7BDF80028F0D14246C7
:102F20001F49204C204F304611F098F93046FDF7EC
:102F3000BBF80146304600F099F82B463A464E2140
:102F4000304611F057F980463046FDF7ADF806EBF4
:102F5000000C2288A3783252811C8CF80230304653
:102F600000F084F8B8F14D0F01DD4D35E5D1228830
:102F7000A3783280B3700221304600F077F80FF06A
:102F80006BF830460FF0ECFA0848BDE8F081054CCC
:102F9000EDE700BF0C6B03087C520308FCA0012086
:102FA000606503083464030868650308605103081A
:102FB00070B586B00C4615461E4603AA6B461349EB
:102FC00011F06CF901280FD0022802D0002006B0C1
:102FD00070BD9DF800307BB133462A4621466846D5
:102FE000FFF778FF06B070BD33462A46214603A896
:102FF000FFF7E6FE06B070BD33462A4621460DF1C6
:103000000100FFF767FF06B070BD00BF54650308FD
:1030100000B5054C85B00522216868460EF0B8FD64
:1030200000F064F8F7E700BF34B9012008B5074A9B
:1030300041F63003D3583BB10EF0ECFF00F008F836
:10304000BDE808400FF008B808BD00BFFCA0012093
:10305000054B1A78012A04D00020988058801870F7
:1030600070470220704700BF000C0020F8B51D4ECD
:103070001D4CF3688B422378B8BFF160012B2FD031
:103080006388A5885A1CAD1AC5F30E050127A9420D
:1030900027701FDA00290ADD014400E05A1C10F8ED
:1030A000015B234488429D71C2F30E03F6D1638015
:1030B000002500232370B3889BB2082B08D041F66B
:1030C0003003F05820B141F63803F1580EF036FDC8
:1030D0002846F8BD0921002000F01AFF0925E8E77D
:1030E0000225E8E7FCA00120000C00202DE9F04FAC
:1030F000404D2B78012B85B075D0AC886E88DFF8F9
:103100000091361BC6F30E060123D9F8182201924E
:1031100003A82B7000F0DCFD002E48D0DFF8E4801F
:10312000DFF8D8B0344F4FF0000A40F62131039851
:1031300000F0D4FD00283BD198F83920D30704D5FE
:103140003A6892F8BC21012A2CD099F8FC21032A74
:1031500008D1019BD3F8142222B13A7C032A01D171
:103160007A7CFAB9402E2548314628BF40212A19D9
:10317000013492F806C000F801CBA0EB0B0C8C4593
:10318000C4F30E04F3DB3A68AC8092F8BC21012A48
:10319000A6EB010689B211D058460FF073FFD8B9DB
:1031A000002E05DDBA8892B2052ABED000E0B246F4
:1031B000002350462B7005B0BDE8F08F0A4640460C
:1031C00059460BF029FC0028EAD01B21002000F012
:1031D0009FFE4FF01B0AE3E70B21002000F098FE52
:1031E0004FF00B0ADCE74FF0020A504605B0BDE88D
:1031F000F08F00BF000C0020FCA00120088C0020F4
:1032000024930120F49B01202DE9F041124D84B05C
:1032100005F1EC0605F1F408A5F60C074FF0FF32B6
:10322000296868460EF0B4FC0EF0F4FE00F032F9A6
:1032300004460EF011FF022C0AD0012CEED13368A7
:103240001846002BEAD0D8F800100EF077FCE5E71E
:103250003846FEF7BBF8E1E724B901202DE9F04F2D
:1032600041F21A07664D002483B0EC53002900F0A8
:10327000C1800546894616461088DFF89CA10FFAE2
:1032800083F8A34620E00121FFF7F0FE30889AF88A
:1032900000702A5C0A2A28D00D2A26D0594B1978AA
:1032A0007B1C0229DBB24ED000295CD156498AF83A
:1032B0000030CA5530880130013408EA0000A4B259
:1032C00080B2A145308037D02B5C082B2844DAD15E
:1032D00003214E48FFF7CAFE9AF80030002BE9D0D0
:1032E000013B8AF800303088E5E7002FE3D0454BFA
:1032F0001B78002BDFD1464801930088404B4249A0
:1033000041F21C0B58443A46184410F000FF404864
:10331000019B02888AF80030394B13443B44013248
:103320000A2103F80B101744364B07804FF0020BAD
:10333000308883F800B0BEE7BBF1000F46D1584695
:1033400003B0BDE8F08F30498AF80030CA553088A4
:103350002A5C7B2A02BF2F4901220A70294918BF23
:1033600000220A70A7E728498AF80030CA55308839
:103370002A5C7B2A39D07D2A9DD1264A1778013FC5
:10338000FFB21770002F96D1214A1D491088019372
:1033900041F21C0B58441A4608441B4910F0B7FE72
:1033A0001B4A17491288019B8AF8007011440132A8
:1033B00019441344164A0A2001F80B001380114BDC
:1033C00030884FF0020B83F800B074E70C4C41F2E8
:1033D0001A0241F21C01A35A581C2344A052002295
:1033E00058465A5403B0BDE8F08F0A4A13780133A7
:1033F000137060E78B46584603B0BDE8F08F00BFFE
:10340000FCA00120000000204C8C00206C70030800
:1034100016B10120488C00204C8D0020F8B51A4EC2
:10342000348840F2FE770D19BD421DDCA9B1118828
:10343000DFF85CE01BB2ADB241F21C0C0EEB0407EE
:10344000415C07F80C101188013401311940A4B215
:1034500089B2A5421180F1D1348021460B4805F094
:103460007FFE012803D0F8BD00203080F8BD3288EF
:10347000074B41F21A0499181A5341F21C02002317
:103480008B543380F8BD00BF4E8D002018B1012051
:10349000FCA0012010B5234CA28A618AB4F8183828
:1034A000B4F8160882B0891AC01AC1F30A01ADF83F
:1034B0000420C0F30A00ADF8063021B1236893F868
:1034C000BC31012B06D018B1237C032B12D0002075
:1034D00002B010BDA3889BB2052B01AA40F2FF7376
:1034E00004F1160018D0FFF7B9FEBDF80430A3822E
:1034F00002B010BDA3889BB2052B014640F2FF73BA
:103500000DF1060208480AD0FFF7A8FEBDF8063004
:10351000A4F8183802B010BDFFF780FFE5E7FFF709
:103520007DFFF3E7FCA0012016A9012000F17843FC
:10353000A3F58042B2F5804F1CD3A3F50042B2F54B
:10354000804F19D3A3F54043B3F5804F16D300F154
:10355000774000F57F03B3F5803F11D30A4B00F5A8
:103560007E029A420ED900F57C00984294BF062054
:1035700007207047012070470220704703207047E2
:103580000420704705207047FFFF010070B5254AF1
:10359000254B264D264C002888B01CBF15461C46DE
:1035A00008F0CAFB2846FFF7C1FF01462046FFF797
:1035B000BDFF204B05910130401A00240221B322A7
:1035C00006900791039402A9DA6003A809F0B0FB02
:1035D00020B3194C029ED4F8000204EB801508F0C9
:1035E000E3FB3346154A00904021284610F002FEC6
:1035F000D4F8005204EB85152846FCF755FD01462A
:103600002846FFF733FDD4F80032013303F00703F7
:103610000E210120C4F8003200F07AFC002008B02E
:1036200070BD00BF0040000800440008000004080E
:10363000FFFF0708003C0240BC9D0120707003089A
:10364000054B1B68DB69D3E90021D161BFF34F8FC4
:1036500018680AF007BF00BF04000020054B1B6874
:10366000DB691A689968D161BFF34F8F18680AF057
:10367000F9BE00BF040000202DE9F84FBC4CBD4E40
:103680002568D5F800C0B4450546894690461F46D2
:1036900003D01721012000F03BFC94F82C20012AD4
:1036A000FBD094F82C30012B00F05F81D4E903E3C8
:1036B0002168B14E086816F803C0D4F814A0D4F8F5
:1036C00020B0012184F82C105EF80C10D4E90623F8
:1036D00021F001014EF80C10F35CD15821F00101EA
:1036E000D150016841F0400101605EF80C1021F0FA
:1036F000606141EA0A014EF80C1052F803A09F499C
:103700002AF0606A4AEA0B0A42F803A0D1F808A03E
:103710004AF4001AC1F808A0D1F808A04AF4002A17
:10372000C1F808A0D1F808A04AF0006AC1F808A0C2
:10373000D1F808A04AF0007AC1F808A0416841F029
:1037400001014160416841F0020141605EF80CA056
:10375000A18CA06A4AF0100A4EF80CA05EF80CA0EA
:103760004AF0040A4EF80CA052F803C02CF0100CDA
:1037700042F803C052F803C02CF0040C42F803C016
:1037800000220AF05BFED4E90303F25CDFF8F4E107
:1037900083582168D4F81CB00968D4F834A0DFF845
:1037A000E0C103EA0E0343F40133835002440C31B9
:1037B0009160C2F80CA0536816F80B00D4F818B04A
:1037C000A844B8F1100FC24603EA0C0328BF4FF01B
:1037D000100A43EA0A0353605BF8003003EA0E0E56
:1037E0004EF401330BEB000243F040034BF8003082
:1037F000C2F80C909160536803EA0C0C4CEA0A037F
:10380000002153602163BFF34F8FBFF36F8FD4E963
:103810000313F35CE069CA58D4F818C0305C42F076
:103820001002CA50CA5842F00402CA50CA5842F0A4
:103830000102CA505CF8003043F001034CF800303C
:10384000236B012BFCD1BAEB050C0AD0EB1B07EB69
:103850000C003946656B0D44EA5C01F8012B884287
:10386000F8D1B8EB0A082FD1A18CA06A01220AF086
:10387000E5FDD4E90303F35CA169C558E26925F0CD
:103880001005C550C558B25C25F00405C5508B58CD
:10389000256823F010038B5088582B6820F0040013
:1038A00088505A6822F002025A605A6822F00102D7
:1038B0005A601968002221F0400119601046226305
:1038C00084F82C20BDE8F88FD4E90313F35CDFF80B
:1038D000B4E0CD5822682A48D2F8009005EA0E05D7
:1038E00045F40135CD500B4407EB0C0209F10C01F6
:1038F0009960DA605A68D4E906C50240755D42EA0B
:1039000008025A605CF8053003EA0E0343F4013301
:103910000CEB050243F040034CF80530D760916092
:103920005368034043EA0803002153602163BFF357
:103930004F8FBFF36F8FD4E90323F35CE069D15855
:10394000A569305C41F01001D150D15841F004011B
:10395000D150D15841F00101D1502B5843F001030F
:103960002B50236B012BFCD17EE70220BDE8F88FA2
:1039700008000020003001409C70030800640240F1
:103980000000FFFF1F80FCFF2DE9F04F984C994E7F
:103990002568D5F800C087B0B44507460D46904667
:1039A000019303D01721012000F0B2FA94F82C30D3
:1039B000012BFBD094F82C30012B00F01581D4E9B9
:1039C00003C32168DFF83492086819F80360D4F85B
:1039D00014E0D4F820A0012184F82C105CF8061023
:1039E000D4E9062321F001014CF8061019F8033040
:1039F000D15821F00101D150016841F0400101602E
:103A00005CF8061021F0606141EA0E014CF80610E6
:103A100052F803E078492EF0606E4EEA0A0E42F842
:103A200003E0D1F808E04EF4001EC1F808E0D1F838
:103A300008E04EF4002EC1F808E0D1F808E04EF09E
:103A4000006EC1F808E0D1F808E04EF0007EC1F841
:103A500008E0416841F001014160416841F0020124
:103A600041605CF806E0A18CA06A4EF0100E4CF8A4
:103A700006E05CF806E04EF0040E4CF806E0D6587E
:103A800026F01006D650D65826F00406D65000224E
:103A90000AF0D4FC47B1691E0023626B11F8010FD4
:103AA000D0540133BB42F8D12269E36919F80220EE
:103AB000E06819F80330A569DFF844A14FF0000C65
:103AC00010441D440368226803EA0A031168626B0C
:103AD00043F4013303600C3102AB8160C36043687F
:103AE00007EB0806102E4FEA134328BF10261B04CD
:103AF000334343602B6803EA0A0343F4013343F082
:103B000040032B60EA60A9606B681B0C1B04334305
:103B1000B6EB070B6B601AD001990B4663447D1A14
:103B200003EB0B0EA5EB0C0500E0626BE91813F834
:103B3000010B50549E45F8D12269E36919F802201F
:103B400019F80330E068A569DC4410441D440023E3
:103B50002363036843F010030360036843F0040326
:103B60000360036843F0010303602B6843F0010323
:103B70002B60226B012AFCD1BE1B18EB06084FF00C
:103B800000079FD1A18CA06A0AF058FCD4E9030376
:103B900019F80330A169C558E26925F01005C55030
:103BA000C55819F8022025F00405C5508B58256822
:103BB00023F010038B5088582B6820F004008850A5
:103BC0005A6822F002025A605A6822F001025A60D2
:103BD0001A68404622F040021A60C4F8308084F827
:103BE0002C8007B0BDE8F08F022007B0BDE8F08F51
:103BF0000800002000300140006402409C7003086F
:103C00001F80FCFF012070470C4B0D489A680D493E
:103C100042F0006210B49A6002680B4C22F010026D
:103C200002609A6842F400129A600B68012223F045
:103C300010030B6022635DF8044B70470064024080
:103C40005864024040640240080000200E4B0F48B8
:103C50009A680F4942F0007210B49A6002680D4CE5
:103C600022F0040202609A6842F400229A600B6813
:103C7000012223F004030B601046226317215DF834
:103C8000044B00F045B900BF006402405864024094
:103C9000406402400800002002FB01F00EF0C8BBA7
:103CA00008460EF0C5BB00BF08460EF059BC00BF69
:103CB00008B50EF0AFF9054A41F66813D05808B1BF
:103CC0000DF010FFBDE808400EF0C6B9FCA00120C1
:103CD00010B504460BF0C0F8206010BD38B504469E
:103CE0000D460BF0B9F8001BA84234BF002001209C
:103CF00038BD00BF30B585B001900BF0ADF805467A
:103D00000390019C0BF0A8F8401B8442F9D805B041
:103D100030BD00BF1A4B1B4AD3F80CC0D96841F024
:103D20008071F0B4D9601168174D184C41F0010151
:103D300011602B68A4FB03139B0C00FB03F0A0B1E4
:103D4000044600252E46002756EA0703516811D184
:103D5000204626462F46A41B65EB070553685B1AD1
:103D60008342FBD354EA0503ECD1054BF0BCC3F806
:103D70000CC070474FF0FF304FF0FF360027EAE7E6
:103D8000F0ED00E0001000E0B001002083DE1B43F6
:103D9000704700BF704700BF034B1B68002293F9B8
:103DA000080006210AF09CB80400002010B5074C5A
:103DB0002368002293F9080006210AF091F823688D
:103DC000BDE8104093F908000AF0C0B804000020D4
:103DD000024B1B6893F908000AF0C4B804000020E5
:103DE000B0F5805F38B51FD0B0F5005F1BD11C4C1B
:103DF0001C4AD4F8003292E8030004EB831383E8F2
:103E00000300D4F8005204EB85152846FCF74CF962
:103E100001462846FFF72AF9D4F80032013303F0AF
:103E20000703C4F8003238BD0F4C01E013F07AFEEE
:103E30002368198858680AF0FBFA0128F6D00B4C61
:103E400004F5CC531D78012DEDD1022341F68112EA
:103E50001846A35413F046FE41F68213E55438BDCC
:103E6000BC9D0120C470030804000020FCA00120B8
:103E70000D4A0E4B126892F9080000B5410900F096
:103E80001F0253F8213083B0D34003F001030193A4
:103E9000019B2BB10AF066F8BFF34F8FBFF36F8F12
:103EA000019803B05DF804FB0400002000E100E08D
:103EB00000B97047024B1B6893F908000AF046B836
:103EC0000400002010B5114B1C6886B06389E068BF
:103ED000019301A902230122CDE902230AF0AEF8E1
:103EE00000226189E0680AF0A9FAC820FFF712FFF2
:103EF0000023E06801A9CDE902330AF09FF84FF4EE
:103F0000FA60FFF707FF06B010BD00BF04000020F5
:103F10003B4B9960002872D02DE9F047394C3A4E5E
:103F20003A4F884601224FF4804130460AF086FA23
:103F30004FF4FA60FFF7DEFE38460AF079F840F6F3
:103F4000B830FFF7D7FE38460AF072F84FF4FA603F
:103F5000FFF7D0FE38460AF06BF8B8F1000F36D004
:103F6000DFF8AC904546D4F800024A46402143466B
:103F700004EB801010F03EF9D4F8003204EB831A01
:103F80005046FCF791F801465046FFF76FF8D4F819
:103F90000032013303F0070301224FF48041304621
:103FA000C4F800320AF04AFA38460AF041F84FF4F1
:103FB000FA70FFF79FFE00224FF4804130460AF06E
:103FC0003DFA4FF47A70FFF795FE013DCBD1002208
:103FD0004FF4804130460AF031FA38460AF028F8AA
:103FE00040F6B830FFF786FE38460AF021F840F672
:103FF000B830FFF77FFE38460AF01AF892E77047AC
:10400000FCA00120BC9D012000040240349C012042
:10401000CC700308094B1B6810B5DC690022A18C29
:10402000A06A0AF00BFA4FF4FA70FFF773FEA06A69
:10403000A18C01220AF002FA002010BD0400002029
:10404000FFF7E8BF10B504460DF0E4FF0B4B1B680B
:1040500093F9080009F086FF0CB1FFF733FF084B16
:1040600041F6811003F5CC5141F6821200241C5414
:104070000C709C540DF0F0FF204610BD0400002091
:10408000FCA0012000B5012085B0FFF7DBFF002375
:10409000CDE9013300931A461946184613F030FD56
:1040A00005B05DF804FB00BF024A41F68413D0500E
:1040B000704700BFFCA00120034A41F68413D35887
:1040C00003B11847704700BFFCA0012030B5124C67
:1040D000124A83B00B460090D4F80002402104EB52
:1040E000801010F087F8D4F8005204EB85152846AC
:1040F000FBF7DAFF01462846FEF7B8FFD4F8003296
:10410000013303F007034D210120C4F8003203B04E
:10411000BDE83040FFF7FCBEBC9D0120D87003080D
:10412000FFF7E8BDFFF7F6BD08B507A3D3E9002305
:10413000FCF7FCFA06A3D3E90023FCF7F7FAFCF737
:1041400089FF08BDAFF30080FA48CE3B1835B13D7A
:104150000000000080842E4108B503A3D3E90023AA
:10416000FCF7E4FA08BD00BF0D71AC8BDB68F03FD3
:1041700070B4421EC41C002012F8013FA3F13001AC
:10418000CDB2092DA3F1410604D8084494420AD0C7
:104190000001F1E7052EA3F16101A3F1370504D871
:1041A00094422844F4D170BC7047052902D8573B8B
:1041B0001844EBE70020F6E7D8B10168D1B130B47C
:1041C000D0E90152AA420ED28B5C202B0FD8531C8F
:1041D0000B444C1903E013F8012B202A07D85A1A74
:1041E000A3428260F7D1AA4201D1013A826030BC79
:1041F00070477047084670472DE9F047002847D0C0
:10420000002945D089468768002A45D1002F3FD034
:104210003E6A002E39D04E453BD009F1FF3801E00F
:10422000002C44D018F8015F0FF032FF2844B2464A
:10423000437816F8014B03F00303012B08BF203528
:104240000FF026FF20442346427898F8004002F001
:104250000302012A08BF20339D42E1D00FF018FF6E
:1042600020449AF80050437803F00303012B08BF61
:1042700020340FF00DFF28442B46427802F0030251
:10428000012A08BF20339C4211D03F68002FBFD1C4
:1042900000273846BDE8F087002FF9D0396A002999
:1042A000F6D04846FBF7F6FE08B13F68F4E73B6AF4
:1042B000002BEDD03846BDE8F08700BF2DE9F04F68
:1042C000936881461068C45C1746222C03F10102F2
:1042D00083B000EB020500EB030806D00DB1281AED
:1042E000B860002003B0BDE8F08FD7F804E0724555
:1042F000F4D2825C222A19D02B464FF0000A05E046
:10430000E645ECD95A78222A234613D05C1C5C2A55
:104310002646A4EB000CF3D1E645E0D99E1C0AF139
:10432000010A2346A6EB000C3446E9E72E462C464C
:104330004FF0000ACAF1010AA6EB080050443B699D
:104340000191984701998246002800F0D380D04619
:10435000A54209D22B785C2B14D00135A54288F8F0
:10436000003008F10108F5D3002388F800303B68DD
:10437000F31A01331022C9F800200120C1F800A06F
:10438000BB60AFE7721B002A30DD6878A0F1220322
:10439000532B2BD8DFE803F08F2A2A2A2A2A2A2A2D
:1043A0002A2A2A2A2A8F2A2A2A2A2A2A2A2A2A2A08
:1043B0002A2A2A2A2A2A2A2A2A2A2A2A2A2A2A2A5D
:1043C0002A2A2A2A2A2A2A2A2A2A2A2A2A2A2A2A4D
:1043D0002A2A8F2A2A2A2A2A9E2A2A2A962A2A2AF8
:1043E0002A2A2A2AA62A2A2A872A7F2F50467B6928
:1043F0009847386873E7052A0191F7DDA81CFFF795
:10440000B7FEA0F55C43B3F5806F8346EED3A0F50D
:104410005843B3F5806F01996ED2AB1DF31A052B8B
:10442000E4DDAB795C2BE1D1EB79752BDED105F1C5
:104430000800FFF79DFEA0F55C43B3F5806FD5D271
:104440003E4B019903EA8B2BC0F309004BEA0000B5
:1044500000F5803B0C23BBF5803F68D3384A934579
:10446000C4D804224FF0F00E019203200BF03F025B
:1044700062F07F0200F1FF3C08F800201CF0FF0012
:104480004FEA9B1BF2D1019A4EEA0B0E88F800E02E
:1044900090441D445CE7092388F80030022308F1AA
:1044A00001081D4454E70D2388F80030022308F169
:1044B00001081D444CE7022388F800001D4408F160
:1044C000010845E70C2388F80030022308F10108B1
:1044D0001D443DE7082388F80030022308F1010855
:1044E0001D4435E70A2388F80030022308F101084B
:1044F0001D442DE73868F2E67F2805D8012288F8A8
:10450000000006239044C4E7B0F5006F0DD200F020
:104510003F0363F07F03022288F801304FEA901BCB
:10452000062301924FF0C00EADE7062393E7032266
:104530004FF0E00E0192022098E700BF00FC0F0050
:10454000FFFF100010B5034628209847044618B115
:10455000282200210FF0E6FD204610BD10B370B5F3
:10456000124D0446E3682668D805194606D4A068AB
:1045700088B920696A68B0B19047E3686A689B05AA
:1045800003D4206A08B190476A68204690473446B1
:10459000002EE7D170BDFFF7E1FFE368DA051946A9
:1045A000E7D5EBE770470B46E9E700BF4000002086
:1045B000002900F0FD802DE9F04F0E6893B076B32E
:1045C000D1E9017505F10409B9450C4680462AD8A0
:1045D00006EB050B58460422A5490FF08BFE002878
:1045E00000F0A18005F1050A574507D30522A1492E
:1045F00058460FF07FFE002800F0A680584604229F
:104600009D490FF077FE98B902220120C8F80C20CE
:10461000C8F81400C4F8089002E0013BA360002031
:1046200013B0BDE8F08F05F1050A574580F084808E
:10463000BD42F4D2735D222B00F0ED802D2B00F0F3
:104640008980A3F13002092A40F284805B2B00F0BC
:10465000EA807B2BE3D1E368B3F57A7FDFD20133C5
:10466000E360735D7B2BDAD10135A5602046FFF74F
:10467000A3FDD4E901239342CFD22268D25C7D2AE4
:1046800000F051814FF00009013BA3604E464F46B8
:104690003EE0C9F80000C0F80490A3680133A360AD
:1046A0002046FFF789FD224605F1100105F10C00B7
:1046B000FFF704FEA946002800F01E812046FFF700
:1046C0007BFD2A69A3682A6262682F6193422046B3
:1046D00003F1010180F010812268D35C3A2B40F095
:1046E0000B81A160FFF768FD21462846FFF760FFB8
:1046F000002800F001812046FFF75EFDD4E9012388
:10470000934280F0F9802268D35C2C2B40F0F28039
:104710002069FFF717FF0546002800F01281002EE0
:10472000B7D10646B9E704230120C8F80C30C4F815
:10473000089013B0BDE8F08F05224E4970190FF0B4
:10474000D9FD00287FF474AF0120C8F80C00C4F82C
:1047500008A065E76A1E00237D1B164401930DF136
:1047600008092E2016F8011FA1F12B023A2A28D899
:10477000DFE802F04E274E20274E4E4E4E4E4E4E54
:104780004E4E4E27272727272727272727274E271D
:1047900027272727272727272727272727272727A9
:1047A00027272727272727272727272727274E0099
:1047B0000020704709F8030001333F2B01D0AB42C2
:1047C000D0D112AA1344002501A9484603F8405C41
:1047D00010F0B6FBDDF804A0CA4506460F463FF4CC
:1047E0001EAFC8E9066720A3D3E90023FCF7FAF857
:1047F000002865D06FF00043C8F81430A368AAEB16
:1048000009094B440822C8F80C200120A36007E7DF
:1048100009F80310D0E7224608F1100108F10C0056
:10482000FFF74CFDFCE6E368B3F57A7FBFF4F7AE23
:104830000133E360735D5B2B7FF4F1AE0135A5605E
:104840002046FFF7B9FCD4E901239342BFF4E5AE5B
:104850002268D25C5D2A58D0013B0026A36037460F
:1048600025E000BFAFF300800000C0FFFFFFDF4185
:10487000187103082071030828710308306046602E
:10488000A3680133A3602046FFF796FC2146284623
:10489000FFF78EFE2E4640B32046FFF78DFCD4E98D
:1048A0000123934221D22268D35C2C2B1BD1206997
:1048B000FFF748FE054620B3002FDFD10746DFE7AC
:1048C0000022224B30463946FCF782F820B14FF0E7
:1048D0000043C8F8143091E730463946FCF7ACF88D
:1048E000C8F814008AE75D2B10D03846FFF736FE73
:1048F000002095E67D2B17D03046FFF72FFE0020D5
:104900008EE6002F3FF48BAEEFE70027E36820220E
:10491000013BE360C8F80C20A368C8F808700133B5
:10492000A36001207CE60026E3684022013BE360AF
:10493000C8F80C20A368C8F808600133A360012000
:104940006EE6002E3FF46BAED6E700BF0000E0C17C
:104950002DE9F043434E002489B0CDE90244CDE96E
:104960000444CDE90644C6E90044804600285ED0F0
:1049700091460F460190FBF797FB3B4B451C93E894
:10498000070008AB029503E90700FFF7DBFD0546CA
:10499000002842D0019870B1039B002B5FD1029B8D
:1049A000042B52D9032231490FF0A4FC00284CD12A
:1049B000032301A80393FFF7FFFB01462846FFF7F7
:1049C000F7FD38B3B9F1000F1ED00199DDE902C23D
:1049D000B1B194450FD98B5C202B13D8531C0B44D9
:1049E0000CEB010403E013F8010B202808D85A1A35
:1049F000A3420392F7D194450CD10CF1FF320392FC
:104A0000624507D28B5C2BB997B1019B039A134483
:104A10003B600DE02846FFF7A1FDDDE9022393424C
:104A20000AD217B108EB03023A60C6E900830025F9
:104A3000284609B0BDE8F0831AB1531E002FF1D10A
:104A4000F3E71346002FEDD1EFE701A8FFF7B4FB22
:104A500001462846FFF7ACFD0028DBD0B2E7204630
:104A6000A9E700BF608D00204000002014710308FA
:104A700000221146FFF76CBF0022FFF7BDBB00BF4D
:104A800070B50646FF200D460DF0D2FC50B304462B
:104A900045F65A2214490FF0E1FB2046FBF704FBD0
:104AA00033462A46114920440FF0D8FB2046FBF735
:104AB000FBFA0F49821FA01C0FF0D0FB7B23A371D0
:104AC0002046FBF7F1FA0B4B221819889B782152EC
:104AD000811C93702046FEF7C9FA2046BDE870405D
:104AE0000DF03EBD70BD00BF0C650308AC7203083D
:104AF00064710308346403082DE9F0474C4E41F615
:104B0000881484B03759039305460E469046002F0B
:104B10007CD106294FF0FF0084BF012706260DF047
:104B200087FC0446002C79D0DDED037AF8EEE77AB5
:104B300017EE900AFBF778FC3BA3D3E90023FBF7C1
:104B4000CBFCFBF779FF45F65A223A4981462046CD
:104B50000FF084FB2046FBF7A7FA374B844603CBC4
:104B600004EB0C021B8844F80C00138151606EB1F9
:104B7000DFF8DCA02E442046FBF796FA15F8012B4F
:104B8000204451460FF06AFBAE42F4D12046FBF7B9
:104B90008BFA9FBB98F8005098F8011098F80230F3
:104BA00098F80320019501380091204423490FF023
:104BB00055FB2046FBF778FA4A46214920440FF07E
:104BC0004DFB2046FBF770FA1E4B1F490246186842
:104BD000A050033AA01C0FF041FB7B23A371204699
:104BE000FBF762FA01462046FEF740FA05462046EA
:104BF0000DF0B6FC284604B0BDE8F087134B221830
:104C000019889B78215293700230C3E74FF4FF70EC
:104C10000DF00EFC04460027002C85D14A252846BD
:104C200004B0BDE8F08700BF0000000084D7F73F64
:104C3000FCA001200C650308847103089C71030823
:104C4000BC710308C47103086471030898710308F8
:104C500090710308F0B5044689B0FF200DF0E8FB21
:104C600000284DD0644E336893F8C32193F8C611E1
:104C7000012A054605D093F8C431012B01D0012942
:104C800040D9D4ED057A94ED067A22886388032909
:104C9000FDEEE77ABDEEC77A29D0D4ED076AE78C3E
:104CA0008DED017AFDEEE66ACDED007AA68CCDEDB4
:104CB000026A608C94F82010CDE90567CDE90310F5
:104CC0004E4928460FF0CAFA2846FBF7EDF94C4B3F
:104CD0002A1819889B782952811C93702846FEF760
:104CE000C5F9284609B0BDE8F0400DF039BC8DED9E
:104CF000017ACDED007A434928460FF0AFFAE3E799
:104D000009B0F0BDEDD145F65A223F490FF0A6FAA1
:104D10002846FBF7C9F93D4B074603CBEA19E85192
:104D20001B7813725160616863882288009107F1D3
:104D30000800284436490FF091FA336893F8C831D7
:104D4000002B4FD12846FBF7AFF9D4ED037A94ED51
:104D5000025AD4ED045A94ED176AD4ED066A94ED24
:104D6000057A2C49FDEEE77ABDEEC66ACDED007AF4
:104D7000FDEEC57AFDEEE66ABDEEC77A17EE903A13
:104D8000FDEEE57A8DED036ACDED026A8DED017AD7
:104D900017EE902A28440FF061FA2846FBF784F9B1
:104DA000D4ED077AB4F92210B4F92460B4F92620BE
:104DB000238C0292FDEEE77ACDE9001617EE902AD9
:104DC000154928440FF04AFA2846FBF76DF9134BB2
:104DD00013491B882B52421FA81C0FF03FFA7B235C
:104DE000AB7171E72846FBF75FF994F958200D493C
:104DF00028440FF033FAA5E7FCA00120E071030876
:104E000034640308C87103080C65030818720308AA
:104E1000247203085072030888720308E4660308CA
:104E200064710308447203082DE9F04F2DED028BE5
:104E3000824685B0FF200DF0FBFAC8B15C4BDFF86D
:104E40008CB11B6893F8C361012E074654D093F8C8
:104E5000C431012B0FD038460DF082FBDBF8003057
:104E60000133CBF8003005B0BDEC028BBDE8F08F0C
:104E7000DFF858B1F2E7BAF80630DBF800204D4908
:104E800038460FF0EBF93846FBF70EF900F1F10365
:104E9000FE2BE0D89AED038A474D0AF181040AF10E
:104EA000F10A01E0FBF700F914F8012F3844294614
:104EB0000FF0D4F9A2453846F4D1FBF7F5F83F4B93
:104EC0003F491B883B52BDEEC88A013018EE103AAC
:104ED00038441AB20FF0C2F904E00CF0EFFD0520DF
:104EE0000CF0F8FD3846FBF7DFF801463846FEF7D0
:104EF000BDF80028F1D1AEE7DAED087ABAF806304D
:104F0000DBF800202F49DFF8C880FDEEE77A0AF1D0
:104F1000F209CDED007A0FF0A1F900233846039392
:104F2000FBF7C2F8054617E078192C46B6F5966FE0
:104F3000C4BF59F806300393BDF90E30BDF90C20FB
:104F40009BB292B241460FF089F9043640F6E17304
:104F50009E4204F1080514D0FA2DE5DD29463846B5
:104F6000FEF784F850B10CF0A9FD05200CF0B2FD5D
:104F700029463846FEF77AF80028F4D10446384628
:104F8000D4E7114B7A1919889B7879530A349370B6
:104F900004E00CF093FD05200CF09CFD2146384602
:104FA000FEF764F80028F4D1014B1B684FE700BFFF
:104FB000FCA001206C7103087C710308886303085E
:104FC000647103084471030834640308688D002089
:104FD0006071030800000000F8B505462DED048B54
:104FE00040690C46FBF70EFA0022654BFBF774FA9A
:104FF0005FA3D3E9002306460F46FBF797FBFBF7B9
:1050000063FD11F05DFFFBF70FFA00225D4BFBF72C
:1050100063FA3B463246FBF7A9F8FBF755FD2B68D0
:1050200008EE900A002B00F09B80012B00F081809D
:105030009FED559A0027EA686B68A868022A03F179
:10504000FF3314BF082610260C2B97BF4F4A9FED45
:105050004E8A02EB830393ED008A00287CDD07EE85
:10506000900AF8EEE77A17EE900AFBF7DDF942A313
:10507000D3E90023FBF730FA0B460246FBF776F83C
:10508000FBF722FD07EE900ABCEEE77A17EE103A26
:105090009BB22A69082A54DD182A09DC07EE106A37
:1050A000B8EEC77ADFED3A6A37EE088A28EE268A2C
:1050B0009FED386A638078EE896AA78086EE867AEB
:1050C000C8EE866ABCEEC77AFCEEE66A17EE103AC6
:1050D0009AB238EE277A07EE902AF8EEE77A238123
:1050E00077EE877ABCEEC88AFCEEE77A17EE903A44
:1050F00098B216EE903AE38018EE103A6081238061
:10510000FBF770F9FFF728F8FBF7BEFCA081608978
:10511000FBF768F9FFF708F8050A020C030E207682
:1051200021776576A276E376BDEC048B2061616120
:10513000F8BDDFED197A9FED199A68EEA78A152759
:1051400079E707EE106AB8EEC77ADFED156A37EE39
:10515000088A28EE268AABE7DFED0B7A002398E772
:10516000DFED107A9FED0D9A68EEA78A152762E7AA
:105170000000000000A074400D71AC8BDB68E03FC4
:10518000000020400000484000000000C4720308F6
:10519000B341823F00007A44C3350043E144A8464E
:1051A000EA5B7E3F7B348044014B18680E307047C9
:1051B000FCA00120074B1968002001F10E0301F546
:1051C000C5711A8813330AB1013080B29942F8D1FF
:1051D000704700BFFCA001200E4B1A68F0B402F12A
:1051E0000E0306460F4602F5C57202E013339342E2
:1051F0000CD09D685C68BD4208BFB4421946F5D129
:1052000018880028F2D00846F0BC704700210846F4
:10521000F0BC7047FCA001200C4B196810B401F1E0
:105220000E03044601F5C57102E013338B4209D029
:105230005A88A2421846F8D11A88002AF5D05DF89B
:10524000044B704700205DF8044B7047FCA0012020
:105250002DE9F047264CBDF820A02468BDF824E0D5
:1052600004F10E0C8946804604F5C571644602E0DF
:105270001334A1420BD0A7686668B94508BFB04592
:105280002046F5D12588002DF2D0BDE8F087614693
:10529000012602E0AEB2152E28D00888751C133105
:1052A00037B20028F6D1614602E013318C4208D0B3
:1052B0004D889542F9D108880028F6D0013292B283
:1052C000F1E713206FF0120117FB00110CEB010046
:1052D0002CF801604280C0F80480C0F808908381F7
:1052E000A0F80EA0A0F810E0BDE8F0870020CCE701
:1052F000FCA001200C4B196801F10E0301F5C571EA
:1053000002E0133399420DD05A888242F9D11A88AB
:10531000002AF6D00022DA601A605A609A60C3F858
:105320000F207047704700BFFCA001200E4B1A6889
:1053300030B402F10E0302F5C57202E013339A4253
:105340000FD09D685C68A94208BFA042F6D11C88B6
:10535000002CF3D00022DA601A605A609A60C3F819
:105360000F2030BC704700BFFCA001200B4BD3E9DD
:10537000000150EA01020ED030B4012002E090B2E8
:10538000142806D0F3E9024554EA050100F10102B0
:10539000F5D130BC70470020704700BF708D0020F1
:1053A00000487047708D0020F0B4134DD5E90023FC
:1053B000994208BF904211D0134306460F4610D0C1
:1053C0002C46012104E013430CD00131142910D0E4
:1053D000F4E90223BB4208BFB242F4D10020F0BC82
:1053E0007047002105EBC101C1E900670120F0BC55
:1053F00070470120F0BC7047708D0020A022002172
:1054000001480EF08FBE00BF708D002070B41F4C9D
:10541000002004F5007641F2210501B208224B007C
:1054200000291BB2B8BF6B40013A1946F7D124F8E6
:10543000023F00F58070A64280B2EED1144C1146B6
:105440004B1042EAE110CE1003F00803034306F0CC
:105450000406C8B24D11334305F0020546012B4343
:1054600006F04006C500334305F0200540002B43FD
:1054700000F0100001310343B1F5807F82F080021B
:1054800004F8013FDCD170BC704700BF0E8E0020D5
:105490000F90002010B50446C08912F051FAA0897F
:1054A00012F060FA002012F0A1FB002012F0F4FAD2
:1054B0006189208912F072FB208A12F04BFB608A0E
:1054C000BDE8104012F058BB10B50446006812F059
:1054D000F5F918B107210120FEF71AFD054B1868F0
:1054E00000F2B11012F0F6F92046BDE81040FFF7C7
:1054F000D1BF00BFFCA0012010B50446B0F90000E8
:1055000068B994F8810010F01D0F17D183071DD4DE
:1055100012F056FA002814BF2720002010BD0022E8
:10552000A11C80B212F030FA20880122002112F072
